:020000040800F2
:10000000000200209D0400082904000839040008AB
:1000100049040008590400086904000800000000B1
:1000200000000000000000000000000005040008BF
:100030007904000800000000E103000889040008BA
:100040008D0100088D0100088D0100088D01000858
:100050008D0100088D0100088D0100088D01000848
:100060008D0100088D0100088D0100088D01000838
:100070008D0100088D0100088D0100088D01000828
:100080008D0100088D0100088D0100088D01000818
:100090008D0100088D0100088D0100088D01000808
:1000A0008D0100088D0100088D0100088D010008F8
:1000B000F90B000800000000000000008D0100089E
:1000C0008D01000800000000000000008D01000804
:1000D000000000003F07000839070008000000008A
:1000E0008D0100088D0100080000000000000000E4
:1000F0000000000000000000000000000000000000
:100100000000000000000000000000008D01000859
:1001100000000000000000008D0100088D010008B3
:100120008D0100088D0100088D0100088D01000877
:100130008D01000800000000000000000000000029
:100140008D0100088D0100088D0100088D01000857
:100150008D0100088D0100088D0100088D01000847
:100160008D0100088D0100088D01000800000000CD
:100170008D0100088D010008000000000000000053
:100180008D0100088D0100088D01000800F07CB988
:1001900000F0BEB97047000070B50C46064600F08E
:1001A000A7F9094B094A1D682C44944202D8084A11
:1001B000944207D20C2333604FF0FF3500F0A0F9D2
:1001C000284670BD1C60F9E70002002000000120F5
:1001D000D00A00201946104600F0A6B9194610466C
:1001E00000F0AAB9132303604FF0FF3070471323C8
:1001F00003604FF0FF307047132303604FF0FF3070
:10020000704702294FF0000303608CBF00200120DB
:10021000704700001349144B10B50C68002084424D
:1002200094FAA4F1B1FA81F1104C186008BF4FF0B4
:10023000FF310F4B54F821101A680968A1F1080426
:10024000A2420ED022B110790A2804BF0B201071EF
:100250000A2201F8042C074A31F9021C11801C60A3
:10026000012010BD8C02002098020020A002002076
:100270009402002090020020092930B503791AD990
:10028000092B14D842791A4B53F8225000F1080474
:100290007DB12D68856053F822502C6043F82240D0
:1002A000144A44790123A340146823431360017165
:1002B00030BD8460F2E7092BF9D945790C4B53F82E
:1002C00025203AB11468A2420BBF0022246843F8EB
:1002D00025201460427953F82230002BE7D1054CD9
:1002E000012303FA02F2236823EA02032360DEE714
:1002F000A00200208C02002008B5094B1B681A7967
:10030000092A02D95B79834205D900F0FCF818B1BB
:10031000044B01221A6008BDBDE8084000F058B83F
:10032000940200209802002008B500F0E1F8094B83
:10033000094A1B88094D1BB2002442F82340084A91
:10034000286813682146013B1360FFF795FF2C6076
:1003500000F03AF890020020E00200209402002011
:100360009C020020134423F0030310B54FF07732B2
:100370001C1F43F8042C620742BF4FF0883243F839
:10038000082CA3F108044FF0807344E902030D4BDD
:1003900044F80C3C0022032344E9053222460123A1
:1003A000022044E9073042F8201D0B2342F8043DA7
:1003B000013B032BFAD120466FF0020340F8443D85
:1003C00010BD00BF2903000800F096F801DFFEE72A
:1003D000024A536843F080535360704700ED00E0D9
:1003E000EFF309801EF0100F08BF20ED108A20E9FE
:1003F000F00F40F804ED02490968086000F002F8C7
:1004000094020020FFF706FF06480068016801C952
:10041000B1E8F00F10F0100F08BFB1EC108A81F3B3
:10042000098800479402002008B50249042000F022
:100430003BFA00BF8423000808B50249052000F0FC
:1004400033FA00BF5E23000808B50249062000F019
:100450002BFA00BF7123000808B50249072000F0FD
:1004600023FA00BF2C23000808B50249082000F039
:100470001BFA00BF9023000808B50249092000F0CC
:1004800013FA00BF3E23000808B502490A2000F015
:100490000BFA00BF502300087047704708B5FFF7FC
:1004A000FBFF0E4A0E4B0F498B420ED30E4B0F4AE9
:1004B000002193420ED3FFF7F0FF00F0ADF901F0F9
:1004C0001BF8BDE8084000F0C1B952F8040F43F82A
:1004D000040BE9E743F8041BEBE700BF7C280008A6
:1004E000000200208C0200208C020020D00A002094
:1004F000EFF3108072B6704762B6EFF3108070476A
:1005000080F310887047EFF30580C0B27047000099
:10051000034B044A4FF4E131002000F0ABB800BFB8
:1005200004020020790A00080A460146014800F04A
:10053000AEBA00BF0402002010B50A460C460146C0
:10054000002000F069F8204610BD000010B598B1F9
:1005500001282BD01B4A136923F0040313610024E4
:10056000FFF7C6FFBFF34F8F30BFFFF7C9FF3CB3A4
:10057000BDE8104000F036BA134B1A6822F00302AF
:100580001A601A6842F003021A609A6822F48072B4
:100590009A609A6942F480729A619A689A60094AEC
:1005A000136943F0040313610124D9E7064B1A6869
:1005B00022F003021A601A6842F001021A60EEE7A4
:1005C00010BD00BF00ED00E0007000401C230F4A8A
:1005D000434370B5D458E569AA0609D50C4AA18CE5
:1005E0000C235843131812581E7A5868314090470C
:1005F0002B0742BF236A43F008032362054B1B68A5
:100600001BB1BDE87040FFF7E3BE70BDA423000836
:10061000A4030020980200201C2310B55843084B67
:100620001B580A44914203D1DA695206FCD510BD29
:1006300011F8010BDC692406FCD580B21885F1E7BE
:10064000A42300080C234343084AD35810B504469A
:1006500013B1012000F04AFA054B1C2202FB0434BE
:100660006168A07CBDE8104000F05CBAA4030020E3
:10067000A42300082DE9F843DFF8B890804614461B
:100680002A480C221C2502FB08F205FB08950E46A1
:100690008118EF684B60FF2384500B7238460121AC
:1006A00000F050F8384600F0ADF83846697C00F0AC
:1006B00081F84F464CB1D5F808900021484600F02B
:1006C00041F8297C484600F075F84046FFF7BAFF2C
:1006D0001C2000FB08F007EB00083D5800232B60AE
:1006E0006B60AB6098F81430EBB998F8120000F02A
:1006F0000DFAB0FBF6F080B2E86094B198F81320E0
:1007000053B2002B08DB012102F01F0201FA02F2B2
:100710005B09074941F823202D232B600020BDE809
:10072000F8830923F9E74FF0FF30F8E7A40300202E
:1007300000E100E0A42300080020FFF747BF0120EC
:10074000FFF744BFF8B50D460127C0F3832120F021
:100750000F0400F00F0607FA01F1042000F0E2F99F
:1007600006FA07FC0323226803FA0CF3D84302407D
:100770002260226805F0030101FA0CF111432160A7
:10078000E2681040E060E168C5F3810202FA0CF211
:100790000A43E2606268B74022EA0707676062685E
:1007A000C5F30015B54015436560A2681343A36007
:1007B0000020F8BD20F00F03F0B500F00F041D6815
:1007C00067000326BE4025EA06051D601D6802225B
:1007D000072C02FA07F242EA050294BF0024012422
:1007E0001A6003EB840300F007001A6A80000F24EC
:1007F000844022EA04021A621A6A01FA00F01043E5
:100800001862F0BD20F00F02012300F00F0003FA80
:1008100000F090617047000008B500F0ADF90121CB
:100820000248BDE80840FFF78DBF00BF0304004841
:1008300008B5034800F034FF00F05EFA002008BD60
:10084000DC23000808B500F035F9FCE71FB5FFF719
:100850004FFE0E4B0E481B68029300240D4B009375
:100860000F220C234FF48071019400F045F80A4BDD
:100870000A481B68CDE90143094B009307220C236A
:100880004FF4C06100F038F8FFF79EFD1802002019
:10089000BC030020450800081C020020BC04002006
:1008A000310800087047000008B5084B1A683AB9CB
:1008B000012207481A6000F0F3FE064800F0F0FE3F
:1008C000FFF716FEFFF7EEFF00F07AF8BC0A0020F3
:1008D000102400082C24000830B54C7901F10802DE
:1008E000036813B98B60026030BD13F8035CAC423F
:1008F000F8D31846F4E700000F2A2DE9F84F074611
:100900009046994627D810F003031CBFC3F1040397
:10091000C91AA1F1240118BFFF1821F00306FFF73F
:10092000E7FD254ABC198346012352F823500FFAEC
:1009300083FA9DB10133212BF7D15846FFF7E0FD33
:100940006FF08A0A35E001212046FFF795FC5846F2
:10095000FFF7D6FD2DE06FF0150A2AE042F823409C
:10096000DDE90A0133463A46A4F806A0FFF7FAFC8F
:10097000124A20604FF0FF33C4E90735136884F84A
:100980000580013319F0010F2571C4E90255C4E94E
:100990000455A5611360D6D10B212046FFF76CFCEE
:1009A00019F0040FD3D15846FFF7AAFD4046FFF7D0
:1009B000A3FC5046BDE8F88FE00200209C02002016
:1009C000BFF34F8F0549064BCA6802F4E062134338
:1009D000CB60BFF34F8F00BFFDE700BF00ED00E02D
:1009E0000400FA0538B5FFF783FD204C0023A3610E
:1009F000054600F0CFF842F20153A360A36803F06C
:100A00000C03042BFAD11A4B40F204721A604FF413
:100A100080732360B923236023689907FCD54FF0C6
:100A20004063C4F8883000F0D3F8236843F004032F
:100A3000236023689A07FCD50E4BE360236843F0DC
:100A40008073236023689B01FCD5A36843F00303F4
:100A5000A360A36803F00C030C2BFAD100F0A6F8F6
:100A60002846BDE83840FFF74BBD00BF00100240EC
:100A7000002002405114000138B5054600F000F98D
:100A8000044605F1100000F07DF9204638BDF8B5A8
:100A900004460D46164600F1100732462946204608
:100AA00000F0DBF800B1F8BD0121384600F03AF95A
:100AB000F3E70000F8B50C4D2E6816F47F4F11D106
:100AC000F4B2003418BF0124FFF712FD2B689E42D8
:100AD000074602D12046FFF739FD3846BDE8F84009
:100AE000FFF70EBD0224EFE72002002010B50446F8
:100AF000FFF7FEFC044A135D0133DBB21355BDE87A
:100B00001040FFF7FDBC00BF20020020034B10F097
:100B1000FD0F034818BF1846704700BF005A620215
:100B2000002D3101052808D8DFE800F0030A0F1472
:100B3000191E104A936D19439165BFF34F8F70478B
:100B40000C4A136E19431166F7E70A4AD36D19432D
:100B5000D165F2E7074A936C19439164EDE7054AC2
:100B6000D36C1943D164E8E7024A136D1943116548
:100B7000E3E700BF0010024008B500F029F94FF08C
:100B800080510020FFF7CEFFFFF72CFFBDE80840A3
:100B900000F089B8044B1A6842F480721A601A682F
:100BA0005205FCD5704700BF00100240704700009E
:100BB000024A136843F4807313607047007000406A
:100BC000024A136823F4807313607047007000407A
:100BD00008B5FFF7EDFF074BD3F8902042F0010274
:100BE000C3F89020D3F890209207FBD5BDE80840C9
:100BF000FFF7E6BF001002404FF080432DE9F041BF
:100C00001E69DA680E4F164000254FF002081C4698
:100C100008FA05F2164207D0E368786823EA02036F
:100C2000E36029463B6898470135042DF0D1054B18
:100C30001B681BB1BDE8F041FFF7CABBBDE8F081FE
:100C4000C00A00209802002082680168531C83605B
:100C50004368013B1340C85C7047F8B505460F4632
:100C6000164614461CB1AA68EB689A4201D1301BA3
:100C7000F8BD2846FFF7E8FF013C07F8010BF1E754
:100C8000C268436830B58468121B9A4208D0C268B3
:100C90000468013B1340551CC560E154002030BD81
:100CA0004FF0FF30FBE77047F8B5094F05460E4699
:100CB0000024AC4204DB074800F07AFD0020F8BDB8
:100CC00056F82410384600F0EBFC0134F1E700BF81
:100CD000492400083E24000808B5024800F0E0FC62
:100CE000002008BD4E24000808B5024800F0D8FCDA
:100CF000002008BD5A24000800B50748A1B000F044
:100D000057FD80226946054800F090F8044A53696F
:100D100083F008035361FAE73F24000868240008C1
:100D20000004004870B504460D46FFF7E1FB236858
:100D300006463BB94FF0FF332360FFF7E1FB012587
:100D4000284670BDC5B10E4B1D6802212846FFF72D
:100D500093FA236801330AD105F1080323600023C5
:100D6000AB603046FFF7CCFBFFF732FBE7E72946E5
:100D70002046FFF7B1FDF4E7FFF7C2FBE0E700BF55
:100D80009402002070B50446FFF7B2FB25680646C2
:100D90001DB9BDE87040FFF7B3BB6B1C02D1002347
:100DA0002360F6E728460B2150F808392360FFF747
:100DB00063FA236813B94FF0FF33236015F8034C2F
:100DC0003046FFF79DFB2046BDE87040FFF794BA20
:100DD0000F4BD3F8882042F4700210B5C3F8882076
:100DE0000C4A9A600C4C102283F822200021DA77FA
:100DF00060180131532980F80023F9D11A6942F0B3
:100E000010021A615A6942F400725A6110BD00BFA3
:100E100000ED00E00000000800E100E0024B1B686C
:100E2000986800F05FBA00BF240200202DE9F04F5F
:100E300083B000AF06463E200D463A6000F048FC05
:100E4000202000F045FCFFF7E9FF4FF000083B6869
:100E5000AB4603F1FF39ABEB05034B4580F2028152
:100E600000F038FB031EC0F2FD800D2B01D00A2BD1
:100E700021D18BF800800D2000F02AFC0A2000F020
:100E800027FC5D450ED000202B468346197820298B
:100E900038D9222901D027293FD15C783CBB73483F
:100EA00000F086FC3E2000F013FC202000F010FC37
:100EB000FFF7B4FFCBE7082B01D07F2B12D15D45A4
:100EC000C9D00BF8018C082000F002FC202000F0B3
:100ED000FFFB0BF1FF34082000F0FAFBA346FFF7FD
:100EE0009DFFB8E70BF101048BF80030F4E75C2CB0
:100EF0000DD001331C788C42CFD159782029CED81F
:100F00000BF1010B1C78CCB103F8018BBEE79C7888
:100F1000002CC4D001300233ECE71C7859785C2CEB
:100F20000AD101300029BAD0591C4B1C497822291A
:100F3000B5D02029F1D8E3E71946F6E7BBF1000F59
:100F4000B0D04FEA8B030E3323F00703C7F804D069
:100F5000ADEB030DEA46AC464AF82B409CF8003056
:100F600061460CF1010C002BF8D0222B01D0272B6D
:100F700000D101314AF824108C4601319CF8003030
:100F8000002BF9D101345C45E8D1AAF1040C10B171
:100F90005CF8041F91B9DAF80090D6B134462068A5
:100FA000B8B1494600F04FFC00283BD00C34F6E7BE
:100FB0005C2B03D123783BB90138ECD00C4611F8F7
:100FC000013B002BF4D1E2E794F801E004F801EBD7
:100FD000F0E7274CF4B9DAF80010264800F033FCAB
:100FE000002839D1244A2549254800F059FB2548D5
:100FF00000F0DEFBFEB1DFF8889006F10C040C3443
:1010000054F8181CB9B154F8142C484600F048FBA9
:10101000F5E70C3420680028DDD0494600F013FCC9
:101020000028F6D1A468002CD5D051465846A047D8
:10103000D7F804D036E70E4C002CF9D0DFF84090FA
:101040000C340C3454F8181C0029F1D054F8142C2A
:10105000484600F025FBF4E7DAF800100A4800F0F3
:101060001FFBE5E70C37BD46BDE8F08FE424000820
:1010700068250008FD240008022500080E25000848
:1010800016250008202500084825000808B5FFF7A8
:1010900097FC002008BD08B500F008F8002008BD46
:1010A00008B500F03FF8002008BD000010B510485A
:1010B000104C00F07DFB1049104800F0F1FA104987
:1010C000104800F0EDFA21460F4800F0E9FA0F4908
:1010D0000F4800F0E5FA21460E4800F0E1FA0E490B
:1010E0000E4800F0DDFA0E48BDE8104000F0D8BA16
:1010F000062600087D2600082B2600083626000854
:101100005426000862260008852600089E2600084E
:10111000A3260008C6260008DF260008E7260008E8
:1011200007270008F0B5114B11491B881148124DD3
:10113000124E134F85B00124ADF80C3000F0B0FA18
:1011400055F824306BB11A79B3F906105B79009326
:1011500003AB092A88BF0133384656F8222000F035
:101160009FFA0134212CEBD105B0F0BD1E270008F9
:101170002027000826270008E00200205427000846
:101180003B2700088A892DE9F041054610070C46E7
:1011900058D44B68002B05DC0B6C002B02DC0020C4
:1011A000BDE8F081E66A002EF9D0002312F48052E7
:1011B0002F68216A2B6032D0606DA3895A0705D54C
:1011C0006368C01A636B0BB1236CC01A002302461C
:1011D000E66A216A2846B047431CA38906D12968DC
:1011E0001D2948D8294ACA40D60744D50022626042
:1011F000D9042269226004D5421C01D12B6803B9AD
:101200006065616B2F600029C9D004F144039942E5
:1012100002D0284600F09CF900206063C0E701235B
:101220002846B047411CC8D12B68002BC5D01D2BC8
:1012300001D0162B01D12F60B1E7A38943F0400301
:10124000A381ADE70F69002FA9D093070E6808BFEF
:101250004B690F6018BF0023A6EB07088B60B8F13D
:10126000000F9CDD43463A46216AA66A2846B047ED
:10127000002806DCA38943F04003A3814FF0FF3030
:101280008EE70744A8EB0008E9E700BF0100402013
:1012900038B50B6905460C46DBB118B183690BB94B
:1012A00000F072F80C4B9C4209D16C68B4F90C3018
:1012B0007BB121462846BDE83840FFF763BF074BA6
:1012C0009C4201D1AC68F1E7054B9C4208BFEC6839
:1012D000ECE7002038BD00BF0828000828280008D7
:1012E000E8270008014620B9044B0549186800F0BA
:1012F000D3B8044B1868FFF7CBBF00BF48280008DD
:101300009112000824020020002310B50446C0E911
:101310000033836081814366C281C0E90433836105
:10132000194608225C3000F00BF9054B6362054B4F
:10133000A362054BE362054B2462236310BD00BF2B
:10134000C1170008E31700081B1800083F18000821
:10135000014900F0A1B800BF9112000870B54A1E03
:10136000682555430E4605F1740100F03FF9044627
:1013700040B10021C0E900160C30A06005F1680200
:1013800000F0DEF8204670BD836910B5044633BB1B
:10139000C0E912330365124B124A1B6882629842FD
:1013A00004BF0123836100F01FF86060204600F055
:1013B0001BF8A060204600F017F80022E06004212E
:1013C0006068FFF7A1FF01220921A068FFF79CFFD9
:1013D00002221221E068FFF797FF0123A36110BDED
:1013E0004828000851130008F8B51B4B1E68B36964
:1013F000074613B93046FFF7C7FF4836D6E9013430
:10140000013B03D5336833B13668F7E7B4F90C50C4
:101410006DB16834F4E704213846FFF79FFF306070
:101420000028F1D10C233B6004462046F8BD0B4B4D
:101430006566C4E90055A560C4E90335C4E90555EE
:101440000822294604F15C0000F07AF8C4E90D5541
:10145000C4E91255E9E700BF482800080100FFFF72
:101460002DE9F041884600F14804002614B93046C1
:10147000BDE8F081D4E90175013F01D52468F5E7A5
:10148000AB89012B06D9B5F90E30013302D02846BD
:10149000C04706436835EFE72DE9F84380468946A3
:1014A00000F14804002614B93046BDE8F883D4E9B9
:1014B0000175013F01D52468F5E7AB89012B07D9F8
:1014C000B5F90E30013303D029464046C8470643DC
:1014D0006835EEE7074B10B51C6824B1A36913B952
:1014E0002046FFF751FF61682046BDE8104000F03C
:1014F00075BA00BF2402002070B50D4E0D4CA41B20
:10150000A4100025A54209D10B4E0C4CFEF740FE5D
:10151000A41BA4100025A54205D170BD56F82530A6
:1015200098470135EEE756F8253098470135F2E740
:1015300080280008802800088028000880280008EB
:1015400002440346934200D1704703F8011BF9E7B8
:1015500038B50546002945D051F8043C0C1F002B36
:10156000B8BFE41800F0CAFA1F4A1368104633B92E
:10157000636014602846BDE8384000F0C0BAA3425A
:101580000CD921686218934204BF1A685B686360D3
:1015900004BF521822600460ECE713465A680AB18F
:1015A000A242FAD919685818A0420BD12068014408
:1015B000581882421960DDD1106852685A6001449F
:1015C0001960D7E702D90C232B60D3E720682118D4
:1015D0008A4204BF11685268626004BF0918216022
:1015E0005C60C7E738BD00BFC80A002070B5CD1CDD
:1015F00025F0030508350C2D38BF0C25002D0646B7
:1016000001DBA94203D90C233360002070BD00F038
:1016100075FA214A1468214691B9204C23681BB9F8
:101620003046FEF7B9FD206029463046FEF7B4FD8E
:10163000431C24D10C233360304600F060FAE4E709
:101640000B685B1B18D40B2B0FD90B60CD50CC183B
:10165000304600F054FA04F10B00231D20F007007F
:10166000C31AD3D05A42E250D0E78C424B6816BF1F
:10167000636013600C46EBE70C464968CCE7C41C7A
:1016800024F00304A04205D0211A3046FEF784FD61
:101690000130CFD02560DBE7C80A0020CC0A00204B
:1016A0000FB40A4B13B51C6824B1A36913B92046C3
:1016B000FFF76AFE05AB049AA1680193204600F08B
:1016C00049FA02B0BDE8104004B07047240200207F
:1016D00038B5084B1C68054624B1A36913B92046E8
:1016E000FFF752FEA26829462046BDE8384000F0C8
:1016F000CFBC00BF2402002070B50E46054618B1CD
:1017000083690BB9FFF740FEAB69AC6813B9284693
:10171000FFF73AFE234B9C4217D16C68A3891B0745
:101720001DD52369DBB1013EA36816F8011F013BFB
:10173000A360E9B9002B2EDA22460A21284600F0E0
:101740008DF8013011D00A2011E0174B9C4201D1D5
:10175000AC68E3E7154B9C4208BFEC68DEE7214626
:10176000284600F0CDF80028DDD04FF0FF3070BDE6
:10177000002B04DAA2699A4206DC0A2904D0236805
:101780005A1C22601970CFE72246284600F066F8FE
:101790000130C9D1E9E723680A205A1C2260187079
:1017A000E5E700BF0828000828280008E827000807
:1017B000024B01461868FFF79FBF00BF24020020BC
:1017C00010B50C46B1F90E10FEF704FD0028ABBFB2
:1017D000636DA3891B1823F48053ACBF6365A38199
:1017E00010BD2DE9F0411F468B89DB0505460C46EF
:1017F000164605D502230022B1F90E10FEF7F7FCBC
:10180000A389B4F90E1023F48053A38132463B46DA
:101810002846BDE8F041FEF7E1BC10B50C46B1F931
:101820000E10FEF7E4FC431CA38915BF606523F48A
:10183000805343F48053A38118BFA38110BDB1F935
:101840000E10FEF7CFBC10F8012B11F8013B012A56
:1018500028BF9A42F7D0D01A70470000F8B50E465C
:101860001446054618B183690BB9FFF78DFD214B6E
:101870009C422AD16C68A369A360A3891A072ED55C
:10188000236963B323692068C01A6369F6B283428F
:10189000374604DC21462846FFF7FAFC28BBA3683C
:1018A000013BA36023685A1C22601E7063690130EB
:1018B000834204D0A389DB0719D50A2E17D121460C
:1018C0002846FFF7E5FC90B10FE00B4B9C4201D19D
:1018D000AC68D0E7094B9C4208BFEC68CBE72146D7
:1018E000284600F00DF80028CCD04FF0FF373846DE
:1018F000F8BD00BF0828000828280008E8270008CD
:10190000324B70B51D6806460C4625B1AB6913B95C
:101910002846FFF739FD2E4B9C420FD16C68B4F975
:101920000C309AB215072CD4D00611D4092232609B
:1019300043F04003A3814FF0FF303EE0254B9C4233
:1019400001D1AC68EBE7244B9C4208BFEC68E6E7AA
:10195000510712D5616B41B104F14403994202D0A1
:101960003046FFF7F5FD00236363A38923F02403CA
:10197000A3810023636023692360A38943F00803E4
:10198000A38123694BB9A38903F42073B3F5007FC6
:1019900003D02146304600F071F8A28912F001030D
:1019A0000CD00023A36063695B42A361236953B930
:1019B000B4F90C3013F08000BAD170BD920758BF53
:1019C0006369A360F2E70020F7E700BF240200206C
:1019D0000828000828280008E827000838B50C4621
:1019E000054618B183690BB9FFF7CEFC0E4B9C423C
:1019F0000BD16C686368013B002B63600FDA2146F2
:101A00002846BDE8384000F079BB084B9C4201D124
:101A1000AC68EFE7064B9C4208BFEC68EAE7236836
:101A20005A1C2260187838BD0828000828280008A9
:101A3000E827000870B50E46B1F90E10002996B0DF
:101A400014461D4607DA00232B60B3891A0610D40A
:101A50004FF480630EE06A46FEF7CEFB0028F2DB0F
:101A6000019A02F47042A2F500535A425A412A6088
:101A7000EEE740230020236016B070BD8B8973B55C
:101A80009D0706460C4607D504F1470323602361F2
:101A90000123636102B070BD01AB6A46FFF7CAFF64
:101AA000009905463046FFF7A1FD48B9B4F90C305E
:101AB0009A05EFD423F0030343F00203A381E3E785
:101AC0000D4BB362A389206043F08003A381009B88
:101AD0006361019B20615BB1B4F90E103046FEF7E3
:101AE00090FB28B1A38923F0030343F00103A381F2
:101AF000A3891D43A581CDE75113000870477047A6
:101B00009368013B002B10B4936008DA9469A342F8
:101B100001DB0A2903D15DF8044BFFF79FBE136870
:101B2000581C1060197008465DF8044B7047F8B5F2
:101B300006460F461446D518AC4201D1002007E0F6
:101B40003A4614F8011B3046FFF7DAFF431CF3D185
:101B5000F8BD00002DE9F04F0C469DB017461D461C
:101B6000064618B183690BB9FFF70EFC7C4B9C420B
:101B700058D17468A38918075ED52369002B5BD000
:101B80000023099320238DF8293030238DF82A3043
:101B900003954FF0010BB846454615F8013B0BB1D4
:101BA000252B54D1B8EB070A0BD053463A462146B1
:101BB0003046FFF7BCFF013000F0C280099B534460
:101BC000099398F80030002B00F0BA8000234FF002
:101BD000FF32CDE90523049307938DF853301A9310
:101BE000A846052218F8011B5E4800F0B9FA049BCC
:101BF00078BBD90644BF20228DF853201A0744BF72
:101C00002B228DF853202A782A2A2AD0079AA84610
:101C100000200A25414611F8013B303B092B69D9C8
:101C200060B324E0504B9C4201D1B468A2E74F4B13
:101C30009C4208BFF4689DE721463046FFF760FEEE
:101C400000289DD04FF0FF301DB0BDE8F08FA846B2
:101C5000A2E7444A801A0BFA00F018430490454664
:101C6000BEE7039A111D12680391002A01DB079257
:101C700004E0524243F002030792049398F80030C4
:101C80002E2B0ED198F801302A2B38D1039B1A1D28
:101C90001B680392002BB8BF4FF0FF3308F1020816
:101CA0000593334D98F800100322284600F058FAA7
:101CB00040B14023401B03FA00F0049B034308F1AA
:101CC0000108049398F800102A488DF8281006227D
:101CD00008F1010700F044FA002837D0264B1BBB5F
:101CE000039B073323F0070308330393099B4B44FB
:101CF000099350E705FB0232012088468AE700235A
:101D000008F10108059319460A25404610F8012BF1
:101D1000303A092A03D9002BC3D00591C1E705FB4E
:101D2000012101238046F0E703AB00932246134BC9
:101D300004A93046AFF30080B0F1FF3F8146D5D112
:101D4000A3895B063FF57EAF09987DE703AB00935F
:101D500022460A4B04A9304600F088F8ECE700BFA1
:101D6000082800084C28000828280008E827000850
:101D70005228000856280008000000002F1B000809
:101D80002DE9F04791461F468A680B69DDF82080EF
:101D90009342B8BF1346C9F8003091F84320064675
:101DA0000C4612B10133C9F800302368990642BFCE
:101DB000D9F800300233C9F80030256815F006055F
:101DC00007D104F1190AE368D9F800209B1AAB4245
:101DD00028DC94F843302268003318BF01239206B0
:101DE0002DD404F1430239463046C047013020D09B
:101DF0002368E568D9F8002003F00603042B08BF28
:101E0000AD1AA36822690CBF25EAE5750025934247
:101E1000C4BF9B1AED184FF000091A344D451AD172
:101E2000002008E00123524639463046C0470130C1
:101E300003D14FF0FF30BDE8F0870135C3E7E1186B
:101E40005A1C302081F84300224494F8451082F84F
:101E500043100233C5E70123224639463046C047C6
:101E60000130E6D009F10109D8E700002DE9F0437F
:101E700001F1430C0C46097E85B06E2917460646D3
:101E800098460C9A00F0B38022D8632936D00AD83D
:101E9000002900F0B980582900F0838004F1420540
:101EA00084F8421032E0642901D06929F6D1206813
:101EB0001368050603F104012AD51B681160002B85
:101EC00003DA2D225B4284F843206F480A2239E06E
:101ED000732900F09D8008D86F2920D07029DDD1AA
:101EE000236843F02003236003E0752917D0782985
:101EF000D4D1782384F84530644855E01368191D1F
:101F00001B68116004F1420584F8423001238CE023
:101F10001B68116010F0400F18BF1BB2CFE71368A9
:101F20002568181D1060280601D51B6802E06806A8
:101F3000FBD51B8854486F2914BF0A2208220021B0
:101F400084F843106568A560002DC0F29580216873
:101F500021F004012160002B3DD1002D40F08E8046
:101F60006546082A0BD12368DB0708D52369626818
:101F70009A42DEBF302305F8013C05F1FF35ACEB9A
:101F800005032361CDF800803B4603AA2146304675
:101F9000FFF7F6FE01304DD14FF0FF3005B0BDE840
:101FA000F083394884F84510136821681D1D1B68AB
:101FB00015600A060BD5CA0744BF41F02001216015
:101FC0001BB9226822F0200222601022B7E74D06DA
:101FD00048BF9BB2EFE76546B3FBF2F102FB11335A
:101FE000C35C05F8013D0B460029F5D1B9E713683C
:101FF00025686169181D106028061B6801D51960E5
:1020000002E06A06FBD51980002323616546B9E723
:102010001368191D11601D6862680021284600F0D0
:102020009FF808B1401B606063682361002384F857
:102030004330A7E723692A4639463046C047013076
:10204000AAD023689B0713D4E068039B9842B8BFCB
:102050001846A3E701234A4639463046C0470130B7
:102060009AD00135E368039A9B1AAB42F2DCEBE7A6
:10207000002504F11909F5E7002BACD1037884F8A9
:10208000423004F142056CE75D2800086E28000824
:1020900070B50D461446064618B183690BB9FFF7B3
:1020A00073F9134B9C4212D17468A368013B002B57
:1020B000A36016DAA269934202DBEBB20A2B10D1BD
:1020C000224629463046BDE87040FFF7C7BB094BA2
:1020D0009C4201D1B468E8E7074B9C4208BFF46812
:1020E000E3E723685A1C22601D70E8B270BD00BF90
:1020F0000828000828280008E827000838B50C46FA
:10210000054618B183690BB9FFF73EF90E4B9C42A7
:102110000DD16C682146284600F07CF888B96368C8
:10212000013B636023685A1C2260187838BD074B56
:102130009C4201D1AC68EDE7054B9C4208BFEC68BE
:10214000E8E74FF0FF30F1E70828000828280008EA
:10215000E827000800000000000000000000000068
:1021600001F0FF01102A2BDB10F0070F08D010F848
:10217000013B013A8B422DD010F0070F42B3F6D14C
:10218000F0B441EA012141EA014122F007047FF065
:1021900000070023F0E80256083C85EA010586EABC
:1021A000010685FA47F5A3FA87F586FA47F6A5FAF8
:1021B00087F68EB9EED1F0BC01F0FF0102F0070204
:1021C00032B110F8013B013A83EA010313B1F8D1AF
:1021D0000020704701387047002D06BF3546033890
:1021E000073815F0010F07D1013015F4807F02BFC9
:1021F000013015F4C03F0130F0BC0138704700BF1A
:10220000838903F00903092B01D1FFF76BB8002084
:1022100070470000F8B50C46054618B183690BB944
:10222000FFF7B2F83C4B9C420AD16C68B4F90C2021
:102230000023636093B29E060CD54FF0FF3067E039
:10224000364B9C4201D1AC68F0E7354B9C4208BF4D
:10225000EC68EBE7580749D4D90605D4092342F0C6
:1022600040022B60A281E8E71A070BD521462846D9
:10227000FFF70EF80028E0D1A389A06023F008033F
:10228000A381A061A38943F00403A38123691BB93F
:1022900021462846FFF7F2FBB4F90C70BEB2B30733
:1022A0000FD00123A3811F4B1F49186806F00906B0
:1022B000FFF7D6F8092EA78103D121462846FEF75D
:1022C00061FF22692260666A6369216A2846B04715
:1022D000002860601DDCB4F90C3017BF002243F009
:1022E000200343F040036260A381A6E7616B0029ED
:1022F000CCD004F14403994202D02846FFF728F9D4
:10230000236C636000206063002BBFD0E36B23600D
:10231000F8BD0020FCE700BF0828000828280008B6
:10232000E8270008482800080122000842555320E9
:102330004641554C542048414E444C45520044457A
:10234000425547204D4F4E2048414E444C45520087
:1023500044554D4D592048414E444C45520048414A
:102360005244204641554C542048414E444C45521D
:10237000004D454D204D414E4147452048414E447A
:102380004C4552004E4D492048414E444C45520068
:102390005553414745204641554C542048414E44F1
:1023A0004C45520000440040000002000F0000486D
:1023B00002000048030700260000000000000000A3
:1023C00000380140004000000A00004809000048B1
:1023D0000707012500000000000000006D61696E24
:1023E00028293A20546869732069732052494F5450
:1023F00021202856657273696F6E3A203230313968
:102400002E3037290A0069646C65006D61696E00C1
:102410002A2A2A2052494F54206B65726E656C201F
:1024200070616E69633A0A25730A0A002A2A2A2013
:102430007265626F6F74696E672E2E2E0A0A003EF7
:102440003E3E207368656C6C0022257322005B544D
:102450004553545F454E445D0A005B544553545FF9
:1024600053544152545D0A0098240008A3240008E4
:10247000E90C0008B1240008BA240008D90C0008AF
:10248000C6240008CB240008A90C000800000000A6
:10249000000000000000000073746172745F7465D6
:1024A0007374007374617274732061207465737443
:1024B00000656E645F7465737400656E647320619B
:1024C0002074657374006563686F007072696E7460
:1024D000732074686520696E70757420636F6D6D0C
:1024E000616E64007368656C6C3A20696E636F722C
:1024F000726563742071756F74696E670068656CCE
:1025000070004465736372697074696F6E00436F25
:102510006D6D616E6400252D3230732025730A00C5
:102520002D2D2D2D2D2D2D2D2D2D2D2D2D2D2D2DDB
:102530002D2D2D2D2D2D2D2D2D2D2D2D2D2D2D2DCB
:102540002D2D2D2D2D2D2D007368656C6C3A20637B
:102550006F6D6D616E64206E6F7420666F756E6452
:102560003A2025730A000000982500089F250008DE
:102570008D100008AF250008B2250008A110000842
:10258000DC250008E925000897100008000000007D
:1025900000000000000000007265626F6F7400525E
:1025A00065626F6F7420746865206E6F646500707B
:1025B00073005072696E747320696E666F726D611C
:1025C00074696F6E2061626F75742072756E6E69CA
:1025D0006E6720746872656164732E006170705F4D
:1025E0006D657461646174610052657475726E73B7
:1025F000206170706C69636174696F6E206D6574C1
:102600006164617461007B22636D64223A202261FF
:1026100070705F6D657461646174615F7072696E22
:10262000745F6A736F6E2829227D0072696F745F10
:102630007465737432007B2264617461223A207B7A
:10264000224150505F4E414D45223A2022257322AF
:102650007D7D0A006E75636C656F2D6C3433326B53
:1026600063007B2264617461223A207B22424F41E5
:102670005244223A20222573227D7D0A0073746D14
:1026800033326C34007B2264617461223A207B22F5
:10269000435055223A20222573227D7D0A004E4F59
:1026A0004E45007B2264617461223A207B224150B6
:1026B000505F5348454C4C5F464D54223A202225EA
:1026C00073227D7D0A007B2264617461223A207B43
:1026D000224D4355223A20222573227D7D0A003265
:1026E0003031392E3037007B2264617461223A2008
:1026F0007B224F535F56455253494F4E223A202278
:102700002573227D7D0A007B22726573756C7422AD
:102710003A202253554343455353227D0A005F51CB
:1027200073746174650009706964207C20252D39FB
:102730007351207C20707269200A00092533686972
:10274000207C20252D387320252E3173207C2025D8
:1027500033690A00842700088C27000895270008A1
:102760009E270008A4270008AC270008B52700080A
:10277000BE270008C7270008CF270008D727000872
:10278000DF27000873746F7070656400736C656593
:1027900070696E6700626C206D7574657800626C9C
:1027A00020727800626C2073656E6400626C207227
:1027B00065706C7900626C20616E79666C00626C89
:1027C00020616C6C666C00626C206D626F780062D8
:1027D0006C20636F6E640072756E6E696E67007058
:1027E000656E64696E670000000000000000000074
:1027F00000000000000000000000000000000000D9
:1028000000000000000000000000000000000000C8
:1028100000000000000000000000000000000000B8
:1028200000000000000000000000000000000000A8
:102830000000000000000000000000000000000098
:10284000000000000000000028020020232D302B93
:102850002000686C4C0065666745464700303132A1
:1028600033343536373839414243444546003031F8
:102870003233343536373839616263646566000057
:10288000D40A002064030020400000000000000083
:102890000000000000000000062400080B240008CF
:1028A00001010101280200200000000008280008A2
:1028B00028280008E82700080000000000000000A9
:1028C0000000000000000000000000000000000008
:1028D00000000000000000000000000000000000F8
:1028E00000000000000000000000000000000000E8
:1028F00000000000000000000000000000000000D8
:0C290000000000000000000021000000AA
:040000050800049D4E
:00000001FF
