:020000040800F2
:1000000000020020950400082104000831040008C3
:1000100041040008510400086104000800000000C9
:10002000000000000000000000000000FD030008C8
:100030007104000800000000D903000881040008D2
:100040008901000889010008890100088901000868
:100050008901000889010008890100088901000858
:100060008901000889010008890100088901000848
:100070008901000889010008890100088901000838
:100080008901000889010008890100088901000828
:100090008901000889010008890100088901000818
:1000A0008901000889010008890100088901000808
:1000B000490D0008890100080000000089010008BE
:1000C000890100080000000000000000890100080C
:1000D000000000001B070008150700088901000840
:1000E00089010008890100080000000000000000EC
:1000F0000000000000000000000000000000000000
:1001000000000000000000000000000000000000EF
:1001100000000000000000008901000889010008BB
:1001200000000000000000000000000000000000CF
:1001300000000000000000000000000000000000BF
:10014000890100088901000800000000000000008B
:10015000000000000000000000000000000000009F
:10016000000000000000000000000000000000008F
:10017000000000000000000000000000000000007F
:10018000000000008901000800F07AB9704770474C
:1001900070B50C46064600F0A7F9094B094A1D68E0
:1001A0002C44944202D8084A944207D20C2333606C
:1001B0004FF0FF3500F0A0F9284670BD1C60F9E74C
:1001C0000002002000300020541200201946104682
:1001D00000F0A6B91946104600F0AAB9132303602F
:1001E0004FF0FF307047132303604FF0FF3070472C
:1001F000132303604FF0FF30704702294FF00003D4
:1002000003608CBF00200120704700001349144B8D
:1002100010B50C680020844294FAA4F1B1FA81F17F
:10022000104C186008BF4FF0FF310F4B54F82110ED
:100230001A680968A1F10804A2420ED022B110790F
:100240000A2804BF0B2010710A2201F8042C074A67
:1002500031F9021C11801C60012010BDFC0300203C
:1002600008040020100400200404002000040020E2
:10027000092930B503791AD9092B14D842791A4BB8
:1002800053F8225000F108047DB12D68856053F8C1
:1002900022502C6043F82240144A44790123A340A1
:1002A000146823431360017130BD8460F2E7092BA9
:1002B000F9D945790C4B53F825203AB11468A2427C
:1002C0000BBF0022246843F825201460427953F8BC
:1002D0002230002BE7D1054C012303FA02F22368F8
:1002E00023EA02032360DEE710040020FC03002061
:1002F00008B5094B1B681A79092A02D95B79834230
:1003000005D900F0FCF818B1044B01221A6008BDB1
:10031000BDE8084000F058B804040020080400209C
:1003200008B500F0E1F8094B094A1B88094D1BB2DA
:10033000002442F82340084A286813682146013BFC
:100340001360FFF795FF2C6000F03AF800040020DE
:1003500050040020040400200C040020134423F067
:10036000030310B54FF077321C1F43F8042C6207CB
:1003700042BF4FF0883243F8082CA3F108044FF035
:10038000807344E902030D4B44F80C3C0022032324
:1003900044E9053222460123022044E9073042F8AD
:1003A000201D0B2342F8043D013B032BFAD12046CC
:1003B0006FF0020340F8443D10BD00BF2103000868
:1003C00000F096F801DFFEE7024A536843F08053DD
:1003D0005360704700ED00E0EFF309801EF0100F4E
:1003E00008BF20ED108A20E9F00F40F804ED024923
:1003F0000968086000F002F804040020FFF706FF17
:1004000006480068016801C9B1E8F00F10F0100F4C
:1004100008BFB1EC108A81F309880047040400206A
:1004200008B50249042000F0D9FA00BF24280008CA
:1004300008B50249052000F0D1FA00BFFE270008E8
:1004400008B50249062000F0C9FA00BF11280008CB
:1004500008B50249072000F0C1FA00BFCC27000808
:1004600008B50249082000F0B9FA00BF302800089A
:1004700008B50249092000F0B1FA00BFDE270008E4
:1004800008B502490A2000F0A9FA00BFF0270008C9
:100490007047704708B5FFF7FBFF0E4A0E4B0F4938
:1004A0008B420ED30E4B0F4A002193420ED3FFF71F
:1004B000F0FF00F04BFA01F0BFF9BDE8084000F092
:1004C0005FBA52F8040F43F8040BE9E743F8041B42
:1004D000EBE700BF2030000800020020FC030020F2
:1004E000FC03002054120020EFF3108072B6704716
:1004F00062B6EFF31080704780F310887047EFF317
:100500000580C0B270470000034B044A4FF4E1314C
:10051000002000F08DB800BF04020020190B000875
:100520000A460146014800F002BB00BF0402002059
:1005300010B50A460C460146002000F0D5F82046CA
:1005400010BD000010B598B1012823D0174A1369D7
:1005500023F0040313610024FFF7C6FFBFF34F8F9E
:1005600030BFFFF7C9FFFCB1BDE8104000F078BB19
:100570000F4B1A6822F00F021A601A6842F00E023E
:100580001A605A685A60094A136943F004031361F8
:100590000124E1E7064B1A6822F00F021A601A687C
:1005A00042F001021A60EEE710BD00BF00ED00E06E
:1005B000007000400C234343084AD35810B504464A
:1005C00013B1012000F0E2FA054B142202FB0434BF
:1005D0006168A07CBDE8104000F0F4BA140500206A
:1005E0004428000814230F4A434370B5D458E569E2
:1005F000AA0609D50C4AA18C0C235843131812588B
:100600001E7A5868314090472B0742BF236A43F057
:1006100008032362054B1B681BB1BDE87040FFF760
:10062000D3BE70BD44280008140500200804002033
:100630002DE9F843DFF8AC908046174627480C2296
:10064000142402FB08F204FB08940D468118E668A6
:100650004B60FF2387500B723046012100F060F899
:10066000304600F0BAF83046617C00F08EF84E4615
:100670004FB1D4F808900421484600F051F8217C8D
:10068000484600F082F84046FFF794FF142000FB34
:1006900008F006EB0008345898F812000023236095
:1006A0006360A36000F082FAB0FBF5F080B2E06016
:1006B00097B198F8132053B2002B08DB012102F008
:1006C0001F0201FA02F25B09054941F823202D239C
:1006D00023600020BDE8F8830923F9E71405002012
:1006E00000E100E044280008142310B55843084BEB
:1006F0001B580A44914203D1DA695206FCD510BD59
:1007000011F8010BDC692406FCD580B21885F1E7ED
:10071000442800080020FFF765BF0120FFF762BFF3
:10072000F8B520F00F0400F00F060D46C0F383204B
:100730004FF400318140022000F044FA7700032397
:100740002268BB40D84302402260226805F00301C2
:10075000B94011432160E2681040E060E168C5F3F0
:100760008102BA400A43E26062680121B14022EA94
:10077000010262606268C5F30015B540154365600B
:10078000A2681343A3600020F8BD20F00F03F0B56A
:1007900000F00F041D6867000326BE4025EA060529
:1007A0001D601D680222072C02FA07F242EA0502C8
:1007B00094BF002401241A6003EB840300F00700B7
:1007C0001A6A80000F24844022EA04021A621A6A1C
:1007D00001FA00F010431862F0BD20F00F0201236F
:1007E00000F00F0003FA00F090617047002000F065
:1007F000A3BA0000034B1968024611B9084600F07D
:100800007BBA70472C05002010B5094A136843B124
:100810009C6881688C4207D303D15C6841688C4234
:1008200002D90360106010BD1A461B68EFE700BFD5
:1008300034050020144A1368834210D11B681360EA
:100840001BB158681438FFF7D5BF4FF0FF30FAE7F7
:100850009842196801D1116070471A460B46002B67
:10086000F6D10A4A13681BB9094A136833B97047AD
:1008700098421968EFD01A460B46F4E79842196877
:10088000E9D01A460B46F1E73C0500203805002068
:1008900034050020F8B504460D46FFF7A7FF0023F6
:1008A00023602B1A1E2B07460CD8FFF79FFF8542AB
:1008B000FBD3FFF79BFF8542FBD8D4E90330984771
:1008C0000020F8BDFFF710FE636806460BB9A36869
:1008D00013B12046FFF7AEFF194B65601A681B681D
:1008E000A5F11400B84238BF0132A260A2689A4252
:1008F00006D92046FFF788FF3046FFF7FDFDDFE70A
:10090000B8420ED90F4B1A68194612B15768BD424A
:1009100013D222601C600B68A342EDD1FFF76AFF7F
:10092000EAE7094A136813B159688D4202D223607D
:100930001460E1E71A461B68F5E713461268E4E71E
:10094000300500203C0500203805002008B500F0E7
:1009500053F901210248BDE80840FFF7E1BE00BF9E
:100960000304004808B5034801F03AF800F000FB22
:10097000002008BD6C28000808B500F0EBF8FCE783
:100980001FB5FFF7B1FD0E4B0E481B680293002404
:100990000D4B00930F220C234FF48071019400F053
:1009A00045F80A4B0A481B68CDE90143094B0093FF
:1009B00007220C234FF4C06100F038F8FFF700FD68
:1009C0001802002040050020790900081C020020C0
:1009D00040060020650900087047000008B5084B74
:1009E0001A683AB9012207481A6000F0F9FF064870
:1009F00000F0F6FFFFF778FDFFF7EEFF00F07AF862
:100A0000400C0020EF2800080B29000830B54C7975
:100A100001F10802036813B98B60026030BD13F85E
:100A2000035CAC42F8D31846F4E700000F2A2DE926
:100A3000F84F07469046994627D810F003031CBF8D
:100A4000C3F10403C91AA1F1240118BFFF1821F052
:100A50000306FFF749FD254ABC198346012352F8D6
:100A600023500FFA83FA9DB10133212BF7D1584659
:100A7000FFF742FD6FF08A0A35E001212046FFF7BB
:100A8000F7FB5846FFF738FD2DE06FF0150A2AE016
:100A900042F82340DDE90A0133463A46A4F806A0AD
:100AA000FFF75CFC124A20604FF0FF33C4E90735C2
:100AB000136884F80580013319F0010F2571C4E92A
:100AC0000255C4E90455A5611360D6D10B21204617
:100AD000FFF7CEFB19F0040FD3D15846FFF70CFDFA
:100AE0004046FFF705FC5046BDE8F88F5004002053
:100AF0000C040020BFF34F8F0549064BCA6802F46F
:100B0000E0621343CB60BFF34F8F00BFFDE700BF30
:100B100000ED00E00400FA0538B5054600F058F98C
:100B2000044605F1100000F077FA204638BDF8B50C
:100B300004460D46164600F1100732462946204667
:100B400000F033F900B1F8BD0121384600F034FA65
:100B5000F3E70000F8B50C4D2E6816F47F4F11D165
:100B6000F4B2003418BF0124FFF7BEFC2B689E428C
:100B7000074602D12046FFF7E5FC3846BDE8F840BD
:100B8000FFF7BABC0224EFE72002002010B50446AC
:100B9000FFF7AAFC044A135D0133DBB21355BDE82D
:100BA0001040FFF7A9BC00BF20020020034A044BFD
:100BB00000280CBF10461846704700BF0048E801E7
:100BC0000090D00301280AD004D302280CD0BFF330
:100BD0004F8F7047074AD3691943D161F7E7054A38
:100BE000936919439161F2E7024A536919435161CC
:100BF000EDE700BF0010024038B500F033FA154CA5
:100C00004FF080510020FFF7DDFF00F029F8124B74
:100C1000214602205D69FFF7D5FF4FF090436FF04A
:100C2000A8421A606FF4A072C3F800240B4A4FF078
:100C3000FF33136005EA0401C2F800340220C2F851
:100C4000003CFFF7BFFFFFF75FFCBDE8384000F056
:100C5000D2B800BF0000FFFF0010024000080048AB
:100C600038B5FFF741FC1B4D0023AB60044600F094
:100C700035F84FF480636B602B465A6812F00C0F06
:100C8000FBD1154A1221116081221A605A6822F4A0
:100C90007C125A605A6842F460125A605A6842F4F0
:100CA00000325A601A6842F080721A601A68920123
:100CB000FCD55A6842F002025A605A6802F00C02EF
:100CC000082AFAD100F016F82046BDE83840FFF7B0
:100CD00013BC00BF0010024000200240044B1A6801
:100CE00042F001021A601A689207FCD5704700BFF3
:100CF0000010024070470000032910B516DC0D4BB0
:100D000000011C18185863681A4001F10C0300EB2D
:100D100083035A600269022303FA01F122EA010205
:100D20000261C3681943C160002010BD4FF0FF305D
:100D3000FBE700BF202900080001024B1B58586A3E
:100D4000704700BF202900084FF080432DE9F04193
:100D50001E69DA680E4F164000254FF002081C4647
:100D600008FA05F2164207D0E368786823EA02031E
:100D7000E36029463B6898470135042DF0D1054BC7
:100D80001B681BB1BDE8F041FFF71EBBBDE8F08159
:100D9000440C00200804002082680168531C836012
:100DA0004368013B1340C85C7047F8B505460F46E1
:100DB000164614461CB1AA68EB689A4201D1301B52
:100DC000F8BD2846FFF7E8FF013C07F8010BF1E703
:100DD000C268436830B58468121B9A4208D0C26862
:100DE0000468013B1340551CC560E154002030BD30
:100DF0004FF0FF30FBE77047F8B5094F05460E4648
:100E00000024AC4204DB074800F072FE0020F8BD6D
:100E100056F82410384600F0E3FD0134F1E700BF36
:100E2000F02900081D29000808B5054A054813786F
:100E3000B3FA83F35B09137000F0D2FD002008BD04
:100E40002402002030290008054A064808B55369E5
:100E500083F00803536100F0C3FD002008BD00BF0C
:100E6000000400488F29000808B5044B04484FF4DB
:100E700000229A6100F0B4FD002008BD0004004883
:100E80008F29000808B5044B044808229A6100F035
:100E9000A7FD002008BD00BF00040048402900084D
:100EA00008B50A4A0A4B0B491B68126809680A48C8
:100EB00000F096FD094B0A4A0A491B681268096846
:100EC000094800F08DFD002008BD00BF042004E0AB
:100ED000082004E0002004E0B6290008B4F7FF1F52
:100EE000B0F7FF1FACF7FF1FD429000807B500209B
:100EF000FFF722FF01900B480B4C0C4D0C4E00F0FD
:100F0000F7FD2178284600F06BFD314601A800F07E
:100F100031FA2378012BF4D1064A536983F0080390
:100F20005361EEE7152B000824020020242B000853
:100F300040420F0000040048022838B5094C0BD18C
:100F40004868257800F0BAFA29462070C2B20648EF
:100F500000F046FD002038BD01230448237000F056
:100F60003FFDF7E725020020482900087129000805
:100F700000B50C480C4CA5B000F0BAFD0B4B029329
:100F8000002301930A4B0093062208234FF4C0610B
:100F90000848FFF74BFD802204A9204600F090F896
:100FA000F9E700BF98290008F8290008AA290008D5
:100FB000ED0E00084C0C002070B504460D46FFF7FE
:100FC00093FA236806463BB94FF0FF332360FFF7DF
:100FD00093FA0125284670BDC5B10E4B1D6802214C
:100FE0002846FFF745F9236801330AD105F10803C4
:100FF00023600023AB603046FFF77EFAFFF7E4F989
:10100000E7E729462046FFF701FDF4E7FFF774FA0A
:10101000E0E700BF0404002070B50446FFF764FA5F
:10102000256806461DB9BDE87040FFF765BA6B1C20
:1010300002D100232360F6E728460B2150F8083937
:101040002360FFF715F9236813B94FF0FF332360CE
:1010500015F8034C3046FFF74FFA2046BDE87040C4
:10106000FFF746B90F4BD3F8882042F4700210B551
:10107000C3F888200C4A9A600C4C102283F8222076
:101080000021DA7760180131522980F80023F9D164
:101090001A6942F010021A615A6942F400725A61E8
:1010A00010BD00BF00ED00E00000000800E100E01E
:1010B000024B1B68986800F0B5BA00BF28020020F8
:1010C0002DE9F04F83B000AF06463E200D463A6052
:1010D00000F09EFC202000F09BFCFFF7E9FF4FF0A2
:1010E00000083B68AB4603F1FF39ABEB05034B450A
:1010F00080F20D8100F08EFBB0F1000AC0F2078192
:10110000BAF10D0F05D0BAF10A0F02D0BAF1030FF0
:1011100024D18BF800800D2000F07AFC0A2000F02A
:1011200077FCBAF1030F10D05D450ED000202B469E
:101130008346197820293AD9222901D0272941D17B
:101140005C784CBB744800F0D3FC3E2000F060FC9F
:10115000202000F05DFCFFF7ABFFC2E7BAF1080FFB
:1011600002D0BAF17F0F12D15D45BED00BF8018CD1
:10117000082000F04DFC202000F04AFC0BF1FF3469
:10118000082000F045FCA346FFF792FFADE70BF106
:1011900001048BF800A0F4E75C2C0DD001331C781F
:1011A0008C42CDD159782029CCD80BF1010B1C7879
:1011B000CCB103F8018BBCE79C78002CC2D0013085
:1011C0000233ECE71C7859785C2C0AD101300029F5
:1011D000B8D0591C4B1C49782229B3D02029F1D80A
:1011E000E3E71946F6E7BBF1000FAED04FEA8B03F9
:1011F0000E3323F00703C7F804D0ADEB030DEA4626
:10120000AC464AF82B409CF8003061460CF1010CCA
:10121000002BF8D0222B01D0272B00D101314AF826
:1012200024108C4601319CF80030002BF9D1013498
:101230005C45E8D1AAF1040C10B15CF8041F91B927
:10124000DAF80090D6B134462068B8B1494600F0CB
:101250009AFC00283BD00C34F6E75C2B03D12378B2
:101260003BB90138ECD00C4611F8013B002BF4D10E
:10127000E2E794F801E004F801EBF0E7274CF4B959
:10128000DAF80010264800F07EFC002839D1254A03
:101290002549264800F0A4FB254800F029FCFEB1B2
:1012A000DFF8889006F10C040C3454F8181CB9B11E
:1012B00054F8142C484600F093FBF5E70C342068F2
:1012C0000028DDD0494600F05EFC0028F6D1A46875
:1012D000002CD5D051465846A047D7F804D034E763
:1012E0000E4C002CF9D0DFF844900C340C3454F838
:1012F000181C0029F1D054F8142C484600F070FB5B
:10130000F4E7DAF800100B4800F06AFBE5E70C3769
:10131000BD46BDE8F08F00BF302B0008B42B00089D
:10132000492B00084E2B00085A2B0008622B00089E
:101330006C2B0008942B000808B5FFF7DBFB00209E
:1013400008BD08B500F04EF8002008BD08B500F053
:1013500085F8002008BDFFF75FBE38B504460020C1
:10136000FFF7EAFC05460020FFF7E6FC401BA04221
:10137000F9D338BD70B5064686B03468184B04936F
:1013800000200090CDF814D00C44FFF7D5FC336852
:1013900083420CD9844207D9A34205D9251A3B2D93
:1013A00009D82846FFF7D9FF346006B070BDA342C4
:1013B000F4D88442F1E7B5F5007F03D20020FFF7AF
:1013C000BBFC2C1801216846FFF7F6FD214601A859
:1013D000FFF760FA01216846FFF7EEFDE4E700BF82
:1013E0005713000810B51048104C00F081FB10494D
:1013F000104800F0F5FA1049104800F0F1FA2146C3
:101400000F4800F0EDFA0F490F4800F0E9FA2146C5
:101410000E4800F0E5FA0E490E4800F0E1FA0E48D9
:10142000BDE8104000F0DCBA522C0008C92C0008BE
:10143000772C0008822C0008A02C0008AE2C000895
:10144000D12C0008EA2C0008EF2C0008122D00080F
:101450002B2D0008822D0008A22D0008F0B5114B9D
:1014600011491B881148124D124E134F85B00124AB
:10147000ADF80C3000F0B4FA55F824306BB11A799D
:10148000B3F906105B79009303AB092A88BF0133D7
:10149000384656F8222000F0A3FA0134212CEBD173
:1014A00005B0F0BDB92D0008BB2D0008C12D000806
:1014B00050040020F02D0008D62D00080A2200213B
:1014C00000F0E6BB8A892DE9F041054610070C467D
:1014D00058D44B68002B05DC0B6C002B02DC002081
:1014E000BDE8F081E66A002EF9D0002312F48052A4
:1014F0002F68216A2B6032D0606DA3895A0705D509
:101500006368C01A636B0BB1236CC01A00230246D8
:10151000E66A216A2846B047431CA38906D1296898
:101520001D2948D8294ACA40D60744D500226260FE
:10153000D9042269226004D5421C01D12B6803B969
:101540006065616B2F600029C9D004F144039942A2
:1015500002D0284600F09CF900206063C0E7012318
:101560002846B047411CC8D12B68002BC5D01D2B85
:1015700001D0162B01D12F60B1E7A38943F04003BE
:10158000A381ADE70F69002FA9D093070E6808BFAC
:101590004B690F6018BF0023A6EB07088B60B8F1FA
:1015A000000F9CDD43463A46216AA66A2846B047AA
:1015B000002806DCA38943F04003A3814FF0FF30ED
:1015C0008EE70744A8EB0008E9E700BF01004020D0
:1015D00038B50B6905460C46DBB118B183690BB908
:1015E00000F072F80C4B9C4209D16C68B4F90C30D5
:1015F0007BB121462846BDE83840FFF763BF074B63
:101600009C4201D1AC68F1E7054B9C4208BFEC68F5
:10161000ECE7002038BD00BFA42E0008C42E00084F
:10162000842E0008014620B9044B0549186800F0D3
:10163000D3B8044B1868FFF7CBBF00BFE42E0008F7
:10164000D115000828020020002310B50446C0E987
:101650000033836081814366C281C0E904338361C2
:10166000194608225C3000F00BF9054B6362054B0C
:10167000A362054BE362054B2462236310BD00BFE8
:10168000011B0008231B00085B1B00087F1B0008D0
:10169000014900F0A1B800BFD115000870B54A1E7D
:1016A000682555430E4605F1740100F03FF90446E4
:1016B00040B10021C0E900160C30A06005F16802BD
:1016C00000F0DEF8204670BD836910B5044633BBD8
:1016D000C0E912330365124B124A1B6882629842BA
:1016E00004BF0123836100F01FF86060204600F012
:1016F0001BF8A060204600F017F80022E0600421EB
:101700006068FFF7A1FF01220921A068FFF79CFF95
:1017100002221221E068FFF797FF0123A36110BDA9
:10172000E42E000891160008F8B51B4B1E68B3693B
:10173000074613B93046FFF7C7FF4836D6E90134EC
:10174000013B03D5336833B13668F7E7B4F90C5081
:101750006DB16834F4E704213846FFF79FFF30602D
:101760000028F1D10C233B6004462046F8BD0B4B0A
:101770006566C4E90055A560C4E90335C4E90555AB
:101780000822294604F15C0000F07AF8C4E90D55FE
:10179000C4E91255E9E700BFE42E00080100FFFF8D
:1017A0002DE9F041884600F14804002614B930467E
:1017B000BDE8F081D4E90175013F01D52468F5E762
:1017C000AB89012B06D9B5F90E30013302D028467A
:1017D000C04706436835EFE72DE9F8438046894660
:1017E00000F14804002614B93046BDE8F883D4E976
:1017F0000175013F01D52468F5E7AB89012B07D9B5
:10180000B5F90E30013303D029464046C847064398
:101810006835EEE7074B10B51C6824B1A36913B90E
:101820002046FFF751FF61682046BDE8104000F0F8
:1018300005BB00BF2802002070B50D4E0D4CA41B47
:10184000A4100025A54209D10B4E0C4CFEF79EFCBE
:10185000A41BA4100025A54205D170BD56F8253063
:1018600098470135EEE756F8253098470135F2E7FD
:1018700024300008243000082430000824300008F8
:1018800002440346934200D1704703F8011BF9E775
:1018900038B50546002945D051F8043C0C1F002BF3
:1018A000B8BFE41800F070FB1F4A1368104633B944
:1018B000636014602846BDE8384000F066BBA34270
:1018C0000CD921686218934204BF1A685B68636090
:1018D00004BF521822600460ECE713465A680AB14C
:1018E000A242FAD919685818A0420BD120680144C5
:1018F000581882421960DDD1106852685A6001445C
:101900001960D7E702D90C232B60D3E72068211890
:101910008A4204BF11685268626004BF09182160DE
:101920005C60C7E738BD00BF4C12002070B5CD1C0D
:1019300025F0030508350C2D38BF0C25002D064673
:1019400001DBA94203D90C233360002070BD00F0F5
:101950001BFB214A1468214691B9204C23681BB90E
:101960003046FEF715FC206029463046FEF710FC95
:10197000431C24D10C233360304600F006FBE4E71F
:101980000B685B1B18D40B2B0FD90B60CD50CC18F8
:10199000304600F0FAFA04F10B00231D20F0070096
:1019A000C31AD3D05A42E250D0E78C424B6816BFDC
:1019B000636013600C46EBE70C464968CCE7C41C37
:1019C00024F00304A04205D0211A3046FEF7E0FBC4
:1019D0000130CFD02560DBE74C12002050120020F0
:1019E0000FB40A4B13B51C6824B1A36913B9204680
:1019F000FFF76AFE05AB049AA1680193204600F048
:101A0000EFFA02B0BDE8104004B070472802002091
:101A100038B5084B1C68054624B1A36913B92046A4
:101A2000FFF752FEA26829462046BDE8384000F084
:101A300075BD00BF2802002070B50E46054618B1DE
:101A400083690BB9FFF740FEAB69AC6813B9284650
:101A5000FFF73AFE234B9C4217D16C68A3891B0702
:101A60001DD52369DBB1013EA36816F8011F013BB8
:101A7000A360E9B9002B2EDA22460A21284600F09D
:101A80001DF9013011D00A2011E0174B9C4201D101
:101A9000AC68E3E7154B9C4208BFEC68DEE72146E3
:101AA000284600F05DF90028DDD04FF0FF3070BD12
:101AB000002B04DAA2699A4206DC0A2904D02368C2
:101AC0005A1C22601970CFE72246284600F0F6F82B
:101AD0000130C9D1E9E723680A205A1C2260187036
:101AE000E5E700BFA42E0008C42E0008842E0008DD
:101AF000024B01461868FFF79FBF00BF2802002075
:101B000010B50C46B1F90E10FEF760FB0028ABBF14
:101B1000636DA3891B1823F48053ACBF6365A38155
:101B200010BD2DE9F0411F468B89DB0505460C46AB
:101B3000164605D502230022B1F90E10FEF753FB1D
:101B4000A389B4F90E1023F48053A38132463B4697
:101B50002846BDE8F041FEF73DBB10B50C46B1F993
:101B60000E10FEF740FB431CA38915BF606523F4EC
:101B7000805343F48053A38118BFA38110BDB1F9F2
:101B80000E10FEF72BBB10F8012B11F8013B012AB8
:101B900028BF9A42F7D0D01A70472DE9F047804607
:101BA000894692461E460F463D46089815F8014B59
:101BB00000F070F92044437813F0080332D12D2C43
:101BC00032D17C78BD1C0122002E5DD0102E09D1AF
:101BD000302C07D12B7803F0DF03582B4FD16C78D2
:101BE00010260235002A14BF4FF000416FF000416B
:101BF0000027B1FBF6FC384606FB1C1EA4F130039F
:101C0000092B17D81C46A64223DD7B1C07D0844530
:101C10001CD301D1A64519DB00FB0640012715F8AE
:101C2000014BEBE72F46BFE72B2C04BFBD1C7C7894
:101C30001A46C9E7A4F14103192B01D8373CE2E762
:101C4000A4F16103192B04D8573CDCE74FF0FF37B0
:101C5000E5E77B1C08D12223C8F800300846BAF11A
:101C6000000F07D1BDE8F08702B14042BAF1000F82
:101C7000F8D00FB105F1FF39CAF80090F2E730242F
:101C8000002EAFD10826ADE7302CA3D00A26A9E755
:101C9000084B37B51C68084D236A002B08BF2B463C
:101CA000009313460A4601462046FFF776FF03B02D
:101CB00030BD00BF280200208C020020F8B50E467F
:101CC0001446054618B183690BB9FFF7FDFC214B9B
:101CD0009C422AD16C68A369A360A3891A072ED5F8
:101CE000236963B323692068C01A6369F6B283422B
:101CF000374604DC21462846FFF76AFC28BBA36868
:101D0000013BA36023685A1C22601E706369013086
:101D1000834204D0A389DB0719D50A2E17D12146A7
:101D20002846FFF755FC90B10FE00B4B9C4201D1C8
:101D3000AC68D0E7094B9C4208BFEC68CBE7214672
:101D4000284600F00DF80028CCD04FF0FF37384679
:101D5000F8BD00BFA42E0008C42E0008842E000881
:101D6000324B70B51D6806460C4625B1AB6913B9F8
:101D70002846FFF7A9FC2E4B9C420FD16C68B4F9A2
:101D80000C309AB215072CD4D00611D40922326037
:101D900043F04003A3814FF0FF303EE0254B9C42CF
:101DA00001D1AC68EBE7244B9C4208BFEC68E6E746
:101DB000510712D5616B41B104F14403994202D03D
:101DC0003046FFF765FD00236363A38923F02403F6
:101DD000A3810023636023692360A38943F0080380
:101DE000A38123694BB9A38903F42073B3F5007F62
:101DF00003D02146304600F075F8A28912F00103A5
:101E00000CD00023A36063695B42A361236953B9CB
:101E1000B4F90C3013F08000BAD170BD920758BFEE
:101E20006369A360F2E70020F7E700BF2802002003
:101E3000A42E0008C42E0008842E000838B50C46D5
:101E4000054618B183690BB9FFF73EFC0E4B9C4267
:101E50000BD16C686368013B002B63600FDA21468D
:101E60002846BDE8384000F08FBB084B9C4201D1AA
:101E7000AC68EFE7064B9C4208BFEC68EAE72368D2
:101E80005A1C2260187838BDA42E0008C42E000801
:101E9000842E0008D0F8EC00704770B50E46B1F9FA
:101EA0000E10002996B014461D4607DA00232B6059
:101EB000B3891A0610D44FF480630EE06A46FEF729
:101EC00097F90028F2DB019A02F47042A2F5005360
:101ED0005A425A412A60EEE740230020236016B0A0
:101EE00070BD00008B8973B59D0706460C4607D56B
:101EF00004F14703236023610123636102B070BDD5
:101F000001AB6A46FFF7C9FF009905463046FFF767
:101F10000DFD48B9B4F90C309A05EFD423F0030352
:101F200043F00203A381E3E70D4BB362A389206072
:101F300043F08003A381009B6361019B20615BB13F
:101F4000B4F90E103046FEF758F928B1A38923F0F2
:101F5000030343F00103A381A3891D43A581CDE7BA
:101F60009116000882B001B901A942B14BB11378B2
:101F70000B601278101C18BF012002B07047104689
:101F8000FBE76FF00100F8E7704770479368013B8B
:101F9000002B10B4936008DA9469A34201DB0A298C
:101FA00003D15DF8044BFFF789BE1368581C10601D
:101FB000197008465DF8044B7047F8B506460F46A1
:101FC0001446D518AC4201D1002007E03A4614F877
:101FD000011B3046FFF7DAFF431CF3D1F8BD0000C8
:101FE0002DE9F04F0C469DB017461D46064618B128
:101FF00083690BB9FFF768FB7C4B9C4258D174682E
:10200000A38918075ED52369002B5BD000230993B1
:1020100020238DF8293030238DF82A3003954FF096
:10202000010BB846454615F8013B0BB1252B54D1A1
:10203000B8EB070A0BD053463A4621463046FFF725
:10204000BCFF013000F0C280099B5344099398F80B
:102050000030002B00F0BA8000234FF0FF32CDE9B2
:102060000523049307938DF853301A93A84605224D
:1020700018F8011B5E4800F0C3FA049B78BBD90630
:1020800044BF20228DF853201A0744BF2B228DF81D
:1020900053202A782A2A2AD0079AA84600200A25FF
:1020A000414611F8013B303B092B69D960B324E06C
:1020B000504B9C4201D1B468A2E74F4B9C4208BFF1
:1020C000F4689DE721463046FFF74AFE00289DD080
:1020D0004FF0FF301DB0BDE8F08FA846A2E7444A9C
:1020E000801A0BFA00F0184304904546BEE7039AA5
:1020F000111D12680391002A01DB079204E052428D
:1021000043F002030792049398F800302E2B0ED16F
:1021100098F801302A2B38D1039B1A1D1B680392B3
:10212000002BB8BF4FF0FF3308F102080593334D81
:1021300098F800100322284600F062FA40B14023CC
:10214000401B03FA00F0049B034308F101080493C9
:1021500098F800102A488DF82810062208F1010787
:1021600000F04EFA002837D0264B1BBB039B0733E9
:1021700023F0070308330393099B4B44099350E76B
:1021800005FB0232012088468AE7002308F1010896
:10219000059319460A25404610F8012B303A092AC2
:1021A00003D9002BC3D00591C1E705FB0121012311
:1021B0008046F0E703AB00932246134B04A9304658
:1021C000AFF30080B0F1FF3F8146D5D1A3895B0614
:1021D0003FF57EAF09987DE703AB009322460A4B9B
:1021E00004A9304600F088F8ECE700BFA42E0008F0
:1021F000F02E0008C42E0008842E0008F62E0008D9
:10220000FA2E000800000000BB1F00082DE9F0476F
:1022100091461F468A680B69DDF820809342B8BF5B
:102220001346C9F8003091F8432006460C4612B117
:102230000133C9F800302368990642BFD9F800304D
:102240000233C9F80030256815F0060507D104F1FE
:10225000190AE368D9F800209B1AAB4228DC94F8ED
:1022600043302268003318BF012392062DD404F1B5
:10227000430239463046C047013020D02368E56824
:10228000D9F8002003F00603042B08BFAD1AA36899
:1022900022690CBF25EAE57500259342C4BF9B1A4D
:1022A000ED184FF000091A344D451AD1002008E00E
:1022B0000123524639463046C047013003D14FF022
:1022C000FF30BDE8F0870135C3E7E1185A1C302024
:1022D00081F84300224494F8451082F843100233F9
:1022E000C5E70123224639463046C0470130E6D0D3
:1022F00009F10109D8E700002DE9F04301F1430C91
:102300000C46097E85B06E291746064698460C9AFB
:1023100000F0B38022D8632936D00AD8002900F013
:10232000B980582900F0838004F1420584F84210F6
:1023300032E0642901D06929F6D1206813680506C6
:1023400003F104012AD51B681160002B03DA2D224A
:102350005B4284F843206F480A2239E0732900F079
:102360009D8008D86F2920D07029DDD1236843F0E3
:102370002003236003E0752917D07829D4D178236E
:1023800084F84530644855E01368191D1B681160D6
:1023900004F1420584F8423001238CE01B6811608F
:1023A00010F0400F18BF1BB2CFE713682568181D47
:1023B0001060280601D51B6802E06806FBD51B8863
:1023C00054486F2914BF0A220822002184F84310C0
:1023D0006568A560002DC0F29580216821F0040198
:1023E0002160002B3DD1002D40F08E806546082AEB
:1023F0000BD12368DB0708D5236962689A42DEBFE8
:10240000302305F8013C05F1FF35ACEB05032361F2
:10241000CDF800803B4603AA21463046FFF7F6FE82
:1024200001304DD14FF0FF3005B0BDE8F0833948A1
:1024300084F84510136821681D1D1B6815600A0685
:102440000BD5CA0744BF41F0200121601BB92268A7
:1024500022F0200222601022B7E74D0648BF9BB24F
:10246000EFE76546B3FBF2F102FB1133C35C05F8FD
:10247000013D0B460029F5D1B9E71368256861696C
:10248000181D106028061B6801D5196002E06A0655
:10249000FBD51980002323616546B9E71368191D30
:1024A00011601D6862680021284600F0A9F808B193
:1024B000401B606063682361002384F84330A7E712
:1024C00023692A4639463046C0470130AAD02368DE
:1024D0009B0713D4E068039B9842B8BF1846A3E754
:1024E00001234A4639463046C04701309AD001356B
:1024F000E368039A9B1AAB42F2DCEBE7002504F198
:102500001909F5E7002BACD1037884F8423004F1C7
:1025100042056CE7012F0008122F000870B50D4628
:102520001446064618B183690BB9FFF7CDF8134B73
:102530009C4212D17468A368013B002BA36016DA99
:10254000A269934202DBEBB20A2B10D12246294644
:102550003046BDE87040FFF7B1BB094B9C4201D14A
:10256000B468E8E7074B9C4208BFF468E3E72368D8
:102570005A1C22601D70E8B270BD00BFA42E000876
:10258000C42E0008842E000838B50C46054618B144
:1025900083690BB9FFF798F80E4B9C420DD16C681C
:1025A0002146284600F086F888B96368013B6360DD
:1025B00023685A1C2260187838BD074B9C4201D111
:1025C000AC68EDE7054B9C4208BFEC68E8E74FF0CC
:1025D000FF30F1E7A42E0008C42E0008842E000866
:1025E00049B1FF2A85BF8A2303600A704FF0FF308C
:1025F00098BF0120704708467047000000000000A7
:1026000001F0FF01102A2BDB10F0070F08D010F8A3
:10261000013B013A8B422DD010F0070F42B3F6D1A7
:10262000F0B441EA012141EA014122F007047FF0C0
:1026300000070023F0E80256083C85EA010586EA17
:10264000010685FA47F5A3FA87F586FA47F6A5FA53
:1026500087F68EB9EED1F0BC01F0FF0102F007025F
:1026600032B110F8013B013A83EA010313B1F8D10A
:102670000020704701387047002D06BF35460338EB
:10268000073815F0010F07D1013015F4807F02BF24
:10269000013015F4C03F0130F0BC0138704700BF75
:1026A000838903F00903092B01D1FEF7BBBF00208A
:1026B00070470000F8B50C46054618B183690BB9A0
:1026C000FFF702F83C4B9C420AD16C68B4F90C202D
:1026D0000023636093B29E060CD54FF0FF3067E095
:1026E000364B9C4201D1AC68F0E7354B9C4208BFA9
:1026F000EC68EBE7580749D4D90605D4092342F022
:1027000040022B60A281E8E71A070BD52146284634
:10271000FEF75EFF0028E0D1A389A06023F0080344
:10272000A381A061A38943F00403A38123691BB99A
:1027300021462846FFF7D6FBB4F90C70BEB2B307AA
:102740000FD00123A3811F4B1F49186806F009060B
:10275000FFF726F8092EA78103D121462846FEF768
:10276000B1FE22692260666A6369216A2846B04721
:10277000002860601DDCB4F90C3017BF002243F064
:10278000200343F040036260A381A6E7616B002948
:10279000CCD004F14403994202D02846FFF778F8E0
:1027A000236C636000206063002BBFD0E36B236069
:1027B000F8BD0020FCE700BFA42E0008C42E0008CE
:1027C000842E0008E42E0008A1260008425553205C
:1027D0004641554C542048414E444C4552004445D6
:1027E000425547204D4F4E2048414E444C455200E3
:1027F00044554D4D592048414E444C4552004841A6
:102800005244204641554C542048414E444C455278
:10281000004D454D204D414E4147452048414E44D5
:102820004C4552004E4D492048414E444C455200C3
:102830005553414745204641554C542048414E444C
:102840004C45520000440040000002000F000048C8
:102850000200004807070026003801400040000041
:102860000A00004809000048070701256D61696EEC
:1028700028293A20546869732069732052494F54BB
:1028800021202856657273696F6E3A20554E4B4E63
:102890004F574E20286275696C646469723A202F24
:1028A000632F55736572732F64616E69656C2E7347
:1028B000636875656C652F4465736B746F702F6703
:1028C00069745265706F732F30305F676974687513
:1028D000625F2F72746F732F72696F742F52494F3A
:1028E0005429290A0069646C65006D61696E002ACB
:1028F0002A2A2052494F54206B65726E656C2070F5
:10290000616E69633A0A25730A0A002A2A2A20722C
:1029100065626F6F74696E672E2E2E0A0A000000C2
:1029200000000040FFFFFFFF01000000001C00004E
:102930006C65643020617661696C61626C650A0067
:102940006C6564206F6E0A006C6564207365747436
:10295000696D65723A20776173202569207365631C
:102960002C2073657420746F202569207365630AB9
:10297000006C65642073657474696D65723A2072C9
:102980006573657420746F2031207365630A006C71
:102990006564206F66660A003E3E3E207368656C83
:1029A0006C2073746172746564007468726561642C
:1029B0005F66756E63006D637564657669643A3051
:1029C000782530386C585F2530386C585F253038A2
:1029D0006C580A00756E697169643A307825303830
:1029E0006C585F2530386C585F2530386C580A00B9
:1029F0002225732200000000582A00085E2A0008E1
:102A0000A10E00087D2A0008842A0008850E00080F
:102A1000932A00089B2A0008690E0008AB2A0008C8
:102A2000B62A0008490E0008C22A0008CE2A00086B
:102A3000290E0008DB2A0008E82A0008390F0008E0
:102A4000F72A0008FC2A0008F90D00080000000021
:102A50000000000000000000646576696400707288
:102A6000696E74732039362062697420756E6971DD
:102A7000756520646576696365206964006C6564CA
:102A80005F6F6E00737769746368206F6E206C658A
:102A90006430006C65645F6F6666007377697463A9
:102AA00068206F6666206C656430006C65645F74D6
:102AB0006F67676C6500746F67676C65206C656431
:102AC00030006C65645F6175746F72756E0061755E
:102AD000746F72756E206C656430006C65645F7332
:102AE000657474696D6572007365742074696D65D1
:102AF00072206C656430006563686F007072696E87
:102B000074732074686520696E70757420636F6DCE
:102B10006D616E640074687265616420656E7465D1
:102B2000726564006175746F72756E3D25690A0087
:102B30007368656C6C3A20696E636F72726563745A
:102B40002071756F74696E670068656C700044650C
:102B5000736372697074696F6E00436F6D6D616E3F
:102B60006400252D3230732025730A002D2D2D2D64
:102B70002D2D2D2D2D2D2D2D2D2D2D2D2D2D2D2D85
:102B80002D2D2D2D2D2D2D2D2D2D2D2D2D2D2D2D75
:102B90002D2D2D007368656C6C3A20636F6D6D612F
:102BA0006E64206E6F7420666F756E643A202573B4
:102BB0000A000000E42B0008EB2B00083913000882
:102BC000FB2B0008FE2B00084D130008282C0008E2
:102BD000352C00084313000800000000000000002E
:102BE000000000007265626F6F74005265626F6F63
:102BF0007420746865206E6F646500707300507295
:102C0000696E747320696E666F726D6174696F6E40
:102C10002061626F75742072756E6E696E672074C4
:102C20006872656164732E006170705F6D657461B8
:102C3000646174610052657475726E7320617070A6
:102C40006C69636174696F6E206D65746164617431
:102C500061007B22636D64223A20226170705F6D97
:102C6000657461646174615F7072696E745F6A73C8
:102C70006F6E2829227D0072696F745F74657374AA
:102C800033007B2264617461223A207B22415050E0
:102C90005F4E414D45223A20222573227D7D0A0058
:102CA0006E75636C656F2D663330336B38007B2235
:102CB00064617461223A207B22424F415244223A9D
:102CC00020222573227D7D0A0073746D33326633B2
:102CD000007B2264617461223A207B22435055229A
:102CE0003A20222573227D7D0A004E4F4E45007BFF
:102CF0002264617461223A207B224150505F534824
:102D0000454C4C5F464D54223A20222573227D7D4E
:102D10000A007B2264617461223A207B224D435574
:102D2000223A20222573227D7D0A00554E4B4E4FBC
:102D3000574E20286275696C646469723A202F636B
:102D40002F55736572732F64616E69656C2E7363A2
:102D50006875656C652F4465736B746F702F676958
:102D6000745265706F732F30305F67697468756275
:102D70005F2F72746F732F72696F742F52494F54A3
:102D800029007B2264617461223A207B224F535FC9
:102D900056455253494F4E223A20222573227D7DBB
:102DA0000A007B22726573756C74223A2022535597
:102DB0004343455353227D0A005F51737461746528
:102DC0000009706964207C20252D397351207C20F6
:102DD000707269200A000925336869207C20252D3E
:102DE000387320252E3173207C202533690A00009A
:102DF000202E0008282E0008312E00083A2E000848
:102E0000402E0008482E0008512E00085A2E0008B7
:102E1000632E00086B2E0008732E00087B2E00081E
:102E200073746F7070656400736C656570696E674C
:102E300000626C206D7574657800626C2072780099
:102E4000626C2073656E6400626C207265706C79D0
:102E500000626C20616E79666C00626C20616C6C43
:102E6000666C00626C206D626F7800626C20636F2C
:102E70006E640072756E6E696E670070656E64696F
:102E80006E6700000000000000000000000000006D
:102E90000000000000000000000000000000000032
:102EA0000000000000000000000000000000000022
:102EB0000000000000000000000000000000000012
:102EC0000000000000000000000000000000000002
:102ED00000000000000000000000000000000000F2
:102EE000000000002C0200204300504F53495800BE
:102EF000232D302B2000686C4C00656667454647E3
:102F00000030313233343536373839414243444565
:102F100046003031323334353637383961626364D4
:102F2000656600002020202020202020202828283E
:102F30002828202020202020202020202020202081
:102F400020202020881010101010101010101010C9
:102F500010101010040404040404040404041010E9
:102F60001010101010414141414141010101010186
:102F70000101010101010101010101010101011032
:102F8000101010101042424242424202020202025B
:102F90000202020202020202020202020202021003
:102FA00010101020000000000000000000000000D1
:102FB0000000000000000000000000000000000011
:102FC0000000000000000000000000000000000001
:102FD00000000000000000000000000000000000F1
:102FE00000000000000000000000000000000000E1
:102FF00000000000000000000000000000000000D1
:1030000000000000000000000000000000000000C0
:1030100000000000000000000000000000000000B0
:0430200000000000AC
:1030240058120020D40400204000000000000000DA
:103034000000000000000000E5280008EA2800085D
:1030440001010101010100002C0200200000000028
:10305400A42E0008C42E0008842E000800000000DE
:10306400000000000000000000000000000000005C
:10307400000000000000000000000000000000004C
:10308400000000000000000000000000000000003C
:10309400000000000000000000000000000000002C
:1030A40000000000000000000000000043000000D9
:1030B400000000000000000000000000000000000C
:1030C40000000000000000000000000043000000B9
:1030D40000000000000000000000000000000000EC
:1030E4000000000000000000000000004300000099
:1030F40000000000000000000000000000000000CC
:103104000000000000000000000000004300000078
:1031140000000000000000000000000000000000AB
:103124000000000000000000000000004300000058
:10313400000000000000000000000000000000008B
:103144000000000000000000000000004300000038
:10315400000000000000000000000000000000006B
:103164000000000000000000000000004300000018
:10317400000000000000000000000000000000004B
:10318400000000000000000000000000E12500082D
:10319400651F000800000000232F0008262C0008EB
:1031A4001D2900081D2900081D2900081D290008E3
:1031B4001D2900081D2900081D2900081D290008D3
:1031C4001D290008FFFFFFFFFFFFFFFFFFFFFFFFB9
:1031D400FFFF000001004153434949000000000083
:1031E40000000000000000000000000000000000DB
:1031F4000000000000004153434949000000000062
:1032040000000000000000000000000000000000BA
:0C3214000000000000000000210000008D
:040000050800049556
:00000001FF
