:020000040800F2
:10000000000200209D0400082904000839040008AB
:1000100049040008590400086904000800000000B1
:1000200000000000000000000000000005040008BF
:100030007904000800000000E103000889040008BA
:100040008D0100088D0100088D0100088D01000858
:100050008D0100088D0100088D0100088D01000848
:100060008D0100088D0100088D0100088D01000838
:100070008D0100088D0100088D0100088D01000828
:100080008D0100088D0100088D0100088D01000818
:100090008D0100088D0100088D0100088D01000808
:1000A0008D0100088D0100088D0100088D010008F8
:1000B0004D0F000800000000000000008D01000846
:1000C0008D01000800000000000000008D01000804
:1000D00000000000270700082107000800000000BA
:1000E0008D0100088D0100080000000000000000E4
:1000F0000000000000000000000000000000000000
:100100000000000000000000000000008D01000859
:1001100000000000000000008D0100088D010008B3
:100120008D0100088D0100088D0100088D01000877
:100130008D01000800000000000000000000000029
:100140008D0100088D0100088D0100088D01000857
:100150008D0100088D0100088D0100088D01000847
:100160008D0100088D0100088D01000800000000CD
:100170008D0100088D010008000000000000000053
:100180008D0100088D0100088D01000800F07CB988
:1001900000F0BDB97047000070B50C46064600F08F
:1001A000A7F9094B094A1D682C44944202D8084A11
:1001B000944207D20C2333604FF0FF3500F0A0F9D2
:1001C000284670BD1C60F9E70002002000000120F5
:1001D000901000201946104600F0A0B919461046AC
:1001E00000F09FB9132303604FF0FF3070471323D3
:1001F00003604FF0FF307047132303604FF0FF3070
:10020000704702294FF0000303608CBF00200120DB
:10021000704700001349144B10B50C68002084424D
:1002200094FAA4F1B1FA81F1104C186008BF4FF0B4
:10023000FF310F4B54F821101A680968A1F1080426
:10024000A2420ED022B110790A2804BF0B201071EF
:100250000A2201F8042C074A31F9021C11801C60A3
:10026000012010BD78020020840200208C020020B2
:10027000800200207C020020092930B503791AD9B8
:10028000092B14D842791A4B53F8225000F1080474
:100290007DB12D68856053F822502C6043F82240D0
:1002A000144A44790123A340146823431360017165
:1002B00030BD8460F2E7092BF9D945790C4B53F82E
:1002C00025203AB11468A2420BBF0022246843F8EB
:1002D00025201460427953F82230002BE7D1054CD9
:1002E000012303FA02F2236823EA02032360DEE714
:1002F0008C0200207802002008B5094B1B681A798F
:10030000092A02D95B79834205D900F0FCF818B1BB
:10031000044B01221A6008BDBDE8084000F058B83F
:10032000800200208402002008B500F0E1F8094BAB
:10033000094A1B88094D1BB2002442F82340084A91
:10034000286813682146013B1360FFF795FF2C6076
:1003500000F03AF87C020020CC020020800200204D
:1003600088020020134423F0030310B54FF07732C6
:100370001C1F43F8042C620742BF4FF0883243F839
:10038000082CA3F108044FF0807344E902030D4BDD
:1003900044F80C3C0022032344E9053222460123A1
:1003A000022044E9073042F8201D0B2342F8043DA7
:1003B000013B032BFAD120466FF0020340F8443D85
:1003C00010BD00BF2903000800F096F801DFFEE72A
:1003D000024A536843F080535360704700ED00E0D9
:1003E000EFF309801EF0100F08BF20ED108A20E9FE
:1003F000F00F40F804ED02490968086000F002F8C7
:1004000080020020FFF706FF06480068016801C966
:10041000B1E8F00F10F0100F08BFB1EC108A81F3B3
:10042000098800478002002008B50249042000F036
:100430009DFB00BF4C21000808B50249052000F0D3
:1004400095FB00BF2621000808B50249062000F0F0
:100450008DFB00BF3921000808B50249072000F0D4
:1004600085FB00BFF420000808B50249082000F011
:100470007DFB00BF5821000808B50249092000F0A3
:1004800075FB00BF0621000808B502490A2000F0EC
:100490006DFB00BF182100087047704708B5FFF7D3
:1004A000FBFF0E4A0E4B0F498B420ED30E4B0F4AE9
:1004B000002193420ED3FFF7F0FF00F00DFB00F098
:1004C000C9FEBDE8084000F023BB52F8040F43F812
:1004D000040BE9E743F8041BEBE700BFE423000843
:1004E00000020020780200207802002090100020F6
:1004F000EFF3108072B6704762B6EFF3108070476A
:1005000080F310887047EFF30580C0B27047002376
:100510001A464FF4E131184600F0A0B86FF085009C
:10052000704710B50A460C460146002000F068F8F6
:10053000204610BD10B598B101282BD01B4A136975
:1005400023F0040313610024FFF7D2FFBFF34F8FA2
:1005500030BFFFF7D5FF3CB3BDE8104000F0A4BBAF
:10056000134B1A6822F003021A601A6842F0030261
:100570001A609A6822F480729A609A6942F48072D2
:100580009A619A689A60094A136943F004031361F7
:100590000124D9E7064B1A6822F003021A601A6890
:1005A00042F001021A60EEE710BD00BF00ED00E06E
:1005B000007000401C230F4A434370B5D458E569CE
:1005C000AA0609D50C4AA18C0C23584313181258BB
:1005D0001E7A5868314090472B0742BF236A43F088
:1005E00008032362054B1B681BB1BDE87040FFF791
:1005F000EFBE70BD6C210008500300208402002073
:100600001C2310B55843084B1B580A44914203D190
:10061000DA695206FCD510BD11F8010BDC6924061D
:10062000FCD580B21885F1E76C2100080C23434308
:10063000084AD35810B5044613B1012000F09AFBC4
:10064000054B1C2202FB04346168A07CBDE810400D
:1006500000F0B6BB500300206C2100082DE9F843E0
:10066000DFF8B890804614462A480C221C2502FB6D
:1006700008F205FB08950E468118EF684B60FF23D2
:1006800084500B723846012100F050F8384600F0D3
:10069000ADF83846697C00F081F84F464CB1D5F88A
:1006A00008900021484600F041F8297C484600F0B7
:1006B00075F84046FFF7BAFF1C2000FB08F007EB77
:1006C00000083D5800232B606B60AB6098F8143035
:1006D000EBB998F8120000F05DFBB0FBF6F080B2C9
:1006E000E86094B198F8132053B2002B08DB012185
:1006F00002F01F0201FA02F25B09074941F82320C8
:100700002D232B600020BDE8F8830923F9E74FF083
:10071000FF30F8E75003002000E100E06C21000802
:100720000020FFF747BF0120FFF744BFF8B50D4693
:100730000127C0F3832120F00F0400F00F0607FA11
:1007400001F1042000F03CFB06FA07FC03232268B9
:1007500003FA0CF3D84302402260226805F003013B
:1007600001FA0CF111432160E2681040E060E16899
:10077000C5F3810202FA0CF20A43E2606268B740F4
:1007800022EA070767606268C5F30015B5401543A4
:100790006560A2681343A3600020F8BD20F00F033A
:1007A000F0B500F00F041D6867000326BE4025EA7F
:1007B00006051D601D680222072C02FA07F242EAB4
:1007C000050294BF002401241A6003EB840300F0A7
:1007D00007001A6A80000F24844022EA04021A6289
:1007E0001A6A01FA00F010431862F0BD20F00F02FF
:1007F000012300F00F0003FA00F090617047002021
:1008000000F068BB034B1968024611B9084600F0B6
:1008100041BB70476803002010B5094A136843B113
:100820009C6881688C4207D303D15C6841688C4224
:1008300002D90360106010BD1A461B68EFE700BFC5
:1008400070030020F0B51E4E1E4D33681E4C013360
:1008500033601E4B00201A6818602B68226019460E
:100860000746B44621B1DCF800E08E68764513D91E
:1008700000B129607FB100213960FAB183B15168BC
:10088000586881428CBF19461146084612681B6899
:1008900042B903602160F0BD0F4601200968E1E71D
:1008A0001146F2E70BB90260F4E755685E68B5429D
:1008B0008CBF1D46154605602846E7E72360EAE73A
:1008C0006C030020700300207803002074030020D4
:1008D0002DE9F0412F4F304C01233B602368BBB919
:1008E000FFF7B0FFFFF78BFF0130FBD000254FF083
:1008F0000008236883B9FFF782FF1430854226D9A8
:10090000FFF7A0FFFFF77BFF8542FBD30025F0E751
:10091000FFF775FF0546EAE75E68FFF770FF85425F
:1009200004D8864202D9361A132EE4D823685E68AA
:10093000FFF765FF854201D88642F7D823681A6819
:100940002260C3E90188D3E903209047D1E72368F7
:100950006BB15E68FFF753FF143E14308642C8D374
:1009600000233B603046BDE8F041FFF74BBFFFF787
:1009700046FF8542064602D9FFF764FFC6E710F13D
:10098000150F04D9FFF73BFF8642FBD9F4E74FF080
:10099000FF36E5E76803002078030020144A136857
:1009A000834210D11B6813601BB158681438FFF7DD
:1009B00029BF4FF0FF30FAE79842196801D1116062
:1009C00070471A460B46002BF6D10A4A13681BB92A
:1009D000094A136833B9704798421968EFD01A462C
:1009E0000B46F4E798421968E9D01A460B46F1E73E
:1009F00078030020740300207003002008B5002352
:100A00001846054A054900F077FA4FF0FF30BDE877
:100A10000840FFF7F7BE00BFD108000840420F00B2
:100A2000F8B504460D46FFF7EAFE002323602B1AB3
:100A30001E2B07460CD8FFF7E2FE8542FBD3FFF7DB
:100A4000DEFE8542FBD8D4E9033098470020F8BD8C
:100A5000FFF74EFD636806460BB9A36813B1204645
:100A6000FFF79CFF194B65601A681B68A5F114001D
:100A7000B84238BF0132A260A2689A4206D9204625
:100A8000FFF7CAFE3046FFF73BFDDFE7B8420ED95D
:100A90000F4B1A68194612B15768BD4213D2226033
:100AA0001C600B68A342EDD1FFF7ACFEEAE7094AF0
:100AB000136813B159688D4202D223601460E1E7D4
:100AC0001A461B68F5E713461268E4E76C0300203A
:100AD000780300207403002008B500F09BF9012181
:100AE0000248BDE80840FFF721BE00BF03040048EC
:100AF00008B500F0E9FA034800F0D0FB00F066FA10
:100B0000002008BDA421000808B500F017F9FCE793
:100B10001FB5FFF7EDFC0E4B0E481B680293002437
:100B20000D4B00930F220C234FF48071019400F0C1
:100B300045F80A4B0A481B68CDE90143094B00936D
:100B400007220C234FF4C06100F038F8FFF73CFC9B
:100B5000040200207C030020090B0008080200208A
:100B60007C040020F10A00087047000008B5084B1B
:100B70001A683AB9012207481A6000F08FFB06484C
:100B800000F08CFBFFF7B4FCFFF7EEFF00F07AF803
:100B90007C0A0020D8210008F421000830B54C79E7
:100BA00001F10802036813B98B60026030BD13F8CD
:100BB000035CAC42F8D31846F4E700000F2A2DE995
:100BC000F84F07469046994627D810F003031CBFFC
:100BD000C3F10403C91AA1F1240118BFFF1821F0C1
:100BE0000306FFF785FC254ABC198346012352F80A
:100BF00023500FFA83FA9DB10133212BF7D15846C8
:100C0000FFF77EFC6FF08A0A35E001212046FFF7EE
:100C100033FB5846FFF774FC2DE06FF0150A2AE00D
:100C200042F82340DDE90A0133463A46A4F806A01B
:100C3000FFF798FB124A20604FF0FF33C4E90735F5
:100C4000136884F80580013319F0010F2571C4E998
:100C50000255C4E90455A5611360D6D10B21204685
:100C6000FFF70AFB19F0040FD3D15846FFF748FCF1
:100C70004046FFF741FB5046BDE8F88FCC0200200C
:100C800088020020BFF34F8F0549064BCA6802F463
:100C9000E0621343CB60BFF34F8F00BFFDE700BF9F
:100CA00000ED00E00400FA0538B5FFF721FC204C08
:100CB0000023A361054600F0BBF842F20153A36094
:100CC000A36803F00C03042BFAD11A4B40F2047210
:100CD0001A604FF480732360B92323602368990757
:100CE000FCD54FF04063C4F8883000F0BFF82368AB
:100CF00043F00403236023689A07FCD50E4BE3609E
:100D0000236843F08073236023689B01FCD5A368AC
:100D100043F00303A360A36803F00C030C2BFAD188
:100D200000F092F82846BDE83840FFF7E9BB00BF65
:100D3000001002400020024051140001F8B50C4D93
:100D40002E6816F47F4F11D1F4B2003418BF01247D
:100D5000FFF7CEFB2B689E42074602D12046FFF7E5
:100D6000E9FB3846BDE8F840FFF7CABB0224EFE7CD
:100D70000C02002010B50446FFF7BAFB044A135DCD
:100D80000133DBB21355BDE81040FFF7B9BB00BF1C
:100D90000C020020034B10F0FD0F034818BF18464B
:100DA000704700BF005A6202002D310108B50246AB
:100DB000FFF7F0FF014B9B5C584308BD072200087A
:100DC000052808D8DFE800F0030A0F14191E104A9E
:100DD000936D19439165BFF34F8F70470C4A136EA3
:100DE00019431166F7E70A4AD36D1943D165F2E753
:100DF000074A936C19439164EDE7054AD36C194394
:100E0000D164E8E7024A136D19431165E3E700BFB7
:100E10000010024008B500F059F94FF08051002051
:100E2000FFF7CEFFFFF740FFBDE8084000F0B6B87F
:100E3000044B1A6842F480721A601A685205FCD595
:100E4000704700BF0010024070470000024A13685C
:100E500043F480731360704700700040024A1368C7
:100E600023F48073136070470070004008B5FFF7EB
:100E7000EDFF074BD3F8902042F00102C3F8902019
:100E8000D3F890209207FBD5BDE80840FFF7E6BFF6
:100E900000100240032910B516DC0D4B00011C1890
:100EA000185863681A4001F10C0300EB83035A6081
:100EB0000269022303FA01F122EA01020261C36816
:100EC0001943C160002010BD4FF0FF30FBE700BFA9
:100ED0000C2200080001024B1B58586A704700BFE3
:100EE0000C220008034B00011A58136843F0010359
:100EF000136070470C22000870B50E460446F0B926
:100F000010494FF08045C1E900230121FFF758FF48
:100F10004FF0FF332C6020466C60EB62FFF746FF1A
:100F20000123B0FBF6F00138A8626B61064B4FF06D
:100F3000805220461A60FFF7D5FF204670BD4FF063
:100F4000FF30FBE7800A002000E100E04FF0804323
:100F50002DE9F0411E69DA680E4F164000254FF06A
:100F600002081C4608FA05F2164207D0E3687868C2
:100F700023EA0203E36029463B6898470135042DC4
:100F8000F0D1054B1B681BB1BDE8F041FFF720BA5B
:100F9000BDE8F081800A0020840200207047000034
:100FA00007B50020FFF796FF02AC064E44F8040D8B
:100FB000054D2046314600F0BFF8284600F0E2F922
:100FC000F7E700BFC0C62D00462300082DE9F04317
:100FD000002087B0FFF77EFF284B0590D3E900453E
:100FE0009E682748DFF8D890DFF8D880254F334631
:100FF0002A46214600F052F9234B02930023019325
:10100000224B0093062208234FF4C0612048FFF7CB
:10101000D5FD484600F0B6F941461E4800F03EF9BD
:101020001D491E4800F03AF901211D4800F036F92B
:101030002A4633462146124800F030F9194B1A4827
:10104000196801F01F0100F029F93988174800F0EC
:1010500025F9174905A800F06FF80020FFF73AFFBF
:101060000146144800F01AF9134A1448536983F0F2
:101070000803536100F012F9CBE700BF9075FF1F22
:101080001C220008E075FF1F46220008A10F00087F
:10109000880A00206D220008952200089D22000881
:1010A000BF2200080075FF1FD82200080123000896
:1010B00040420F002823000800040048392300089C
:1010C000522200085F220008FFF798BC0F4BD3F8AC
:1010D000882042F4700210B5C3F888200C4A9A6048
:1010E0000C4C102283F822200021DA77601801319D
:1010F000532980F80023F9D11A6942F010021A61CD
:101100005A6942F400725A6110BD00BF00ED00E060
:101110000000000800E100E000F076B838B50446B1
:101120000020FFF7D7FE05460020FFF7D3FE401B47
:10113000A042F9D338BD000070B5064686B03468C9
:10114000184B049300200090CDF814D00C44FFF706
:10115000C1FE336883420CD9844207D9A34205D922
:10116000251A3B2D09D82846FFF7D8FF346006B072
:1011700070BDA342F4D88442F1E7B5F5007F03D2F5
:101180000020FFF7A7FE2C180121684600F00CF89C
:10119000214601A8FFF744FC0121684600F004F84D
:1011A000E4E700BF1911000870B504460D46FFF7CB
:1011B0009FF9236806463BB94FF0FF332360FFF7E2
:1011C0009FF90125284670BDC5B10E4B1D6802214F
:1011D0002846FFF751F8236801330AD105F10803C7
:1011E00023600023AB603046FFF78AF9FFF7F0F881
:1011F000E7E729462046FFF7D1FCF4E7FFF780F93F
:10120000E0E700BF8002002070B50446FFF770F9E8
:10121000256806461DB9BDE87040FFF771B96B1C23
:1012200002D100232360F6E728460B2150F8083945
:101230002360FFF721F8236813B94FF0FF332360D1
:1012400015F8034C3046FFF75BF92046BDE87040C7
:10125000FFF752B870B50D4E0D4CA41BA41000251D
:10126000A54209D10B4E0C4CFEF792FFA41BA41013
:101270000025A54205D170BD56F8253098470135A7
:10128000EEE756F8253098470135F2E7E8230008E5
:10129000E8230008E8230008E82300080FB40A4BFD
:1012A00013B51C6824B1A36913B9204600F022FAD3
:1012B00005AB049AA1680193204600F0E3FB02B05D
:1012C000BDE8104004B070471002002070B50E4613
:1012D000054618B183690BB900F00CFAAB69AC682C
:1012E00013B9284600F006FA234B9C4217D16C68CC
:1012F000A3891B071DD52369DBB1013EA36816F83E
:10130000011F013BA360E9B9002B2EDA22460A2116
:10131000284600F03FF8013011D00A2011E0174BA9
:101320009C4201D1AC68E3E7154B9C4208BFEC68D6
:10133000DEE72146284600F07FF80028DDD04FF098
:10134000FF3070BD002B04DAA2699A4206DC0A293C
:1013500004D023685A1C22601970CFE72246284621
:1013600000F018F80130C9D1E9E723680A205A1CB7
:1013700022601870E5E700BF74230008942300087A
:1013800054230008024B01461868FFF79FBF00BFB7
:1013900010020020F8B50E461446054618B18369C0
:1013A0000BB900F0A7F9214B9C422AD16C68A369C4
:1013B000A360A3891A072ED5236963B32369206824
:1013C000C01A6369F6B28342374604DC21462846D8
:1013D00000F026F928BBA368013BA36023685A1CD0
:1013E00022601E7063690130834204D0A389DB0749
:1013F00019D50A2E17D12146284600F011F990B1CF
:101400000FE00B4B9C4201D1AC68D0E7094B9C42EA
:1014100008BFEC68CBE72146284600F00DF800280D
:10142000CCD04FF0FF373846F8BD00BF742300081A
:101430009423000854230008324B70B51D680646FB
:101440000C4625B1AB6913B9284600F053F92E4B71
:101450009C420FD16C68B4F90C309AB215072CD4A9
:10146000D00611D40922326043F04003A3814FF02B
:10147000FF303EE0254B9C4201D1AC68EBE7244BAA
:101480009C4208BFEC68E6E7510712D5616B41B199
:1014900004F14403994202D0304600F021FA0023BF
:1014A0006363A38923F02403A3810023636023697A
:1014B0002360A38943F00803A38123694BB9A3895F
:1014C00003F42073B3F5007F03D02146304600F0CB
:1014D000BFF9A28912F001030CD00023A360636955
:1014E0005B42A361236953B9B4F90C3013F0800057
:1014F000BAD170BD920758BF6369A360F2E70020BC
:10150000F7E700BF100200207423000894230008AE
:10151000542300088A892DE9F041054610070C463E
:1015200058D44B68002B05DC0B6C002B02DC002030
:10153000BDE8F081E66A002EF9D0002312F4805253
:101540002F68216A2B6032D0606DA3895A0705D5B8
:101550006368C01A636B0BB1236CC01A0023024688
:10156000E66A216A2846B047431CA38906D1296848
:101570001D2948D8294ACA40D60744D500226260AE
:10158000D9042269226004D5421C01D12B6803B919
:101590006065616B2F600029C9D004F14403994252
:1015A00002D0284600F09CF900206063C0E70123C8
:1015B0002846B047411CC8D12B68002BC5D01D2B35
:1015C00001D0162B01D12F60B1E7A38943F040036E
:1015D000A381ADE70F69002FA9D093070E6808BF5C
:1015E0004B690F6018BF0023A6EB07088B60B8F1AA
:1015F000000F9CDD43463A46216AA66A2846B0475A
:10160000002806DCA38943F04003A3814FF0FF309C
:101610008EE70744A8EB0008E9E700BF010040207F
:1016200038B50B6905460C46DBB118B183690BB9B7
:1016300000F060F80C4B9C4209D16C68B4F90C3096
:101640007BB121462846BDE83840FFF763BF074B12
:101650009C4201D1AC68F1E7054B9C4208BFEC68A5
:10166000ECE7002038BD00BF742300089423000875
:1016700054230008002310B50446C0E900338360FA
:1016800081814366C281C0E904338361194608221F
:101690005C3000F01DF9054B6362054BA362054BFE
:1016A000E362054B2462236310BD00BFC11F000825
:1016B000E31F00081B2000083F200008014900F03C
:1016C00085B800BF2116000870B54A1E682555432D
:1016D0000E4605F1740100F051F9044640B10021B5
:1016E000C0E900160C30A06005F1680200F0F0F8C7
:1016F000204670BD836910B5044633BBC0E9123380
:101700000365124B124A1B688262984204BF012390
:10171000836100F01FF86060204600F01BF8A060B5
:10172000204600F017F80022E06004216068FFF70F
:10173000A1FF01220921A068FFF79CFF02221221CC
:10174000E068FFF797FF0123A36110BD5023000855
:10175000BD160008F8B51B4B1E68B369074613B9E0
:101760003046FFF7C7FF4836D6E90134013B03D5C1
:10177000336833B13668F7E7B4F90C506DB16834AB
:10178000F4E704213846FFF79FFF30600028F1D1CD
:101790000C233B6004462046F8BD0B4B6566C4E94C
:1017A0000055A560C4E90335C4E90555082229465A
:1017B00004F15C0000F08CF8C4E90D55C4E9125541
:1017C000E9E700BF502300080100FFFF2DE9F843BF
:1017D0008046894600F14804002614B93046BDE829
:1017E000F883D4E90175013F01D52468F5E7AB8999
:1017F000012B07D9B5F90E30013303D029464046F5
:10180000C84706436835EEE770B50E46B1F90E10CD
:10181000002996B014461D4607DA00232B60B389D1
:101820001A0610D44FF480630EE06A46FEF7E4FC1B
:101830000028F2DB019A02F47042A2F500535A42EA
:101840005A412A60EEE740230020236016B070BDA5
:101850008B8973B59D0706460C4607D504F14703EF
:10186000236023610123636102B070BD01AB6A464E
:10187000FFF7CAFF00990546304600F07FF848B9E7
:10188000B4F90C309A05EFD423F0030343F00203BC
:10189000A381E3E70D4BB362A389206043F080038B
:1018A000A381009B6361019B20615BB1B4F90E10C1
:1018B0003046FEF7A6FC28B1A38923F0030343F0CA
:1018C0000103A381A3891D43A581CDE7BD160008AF
:1018D00002440346934200D1704703F8011BF9E725
:1018E00038B50546002945D051F8043C0C1F002BA3
:1018F000B8BFE41800F0FCFB1F4A1368104633B968
:10190000636014602846BDE8384000F0F2BBA34293
:101910000CD921686218934204BF1A685B6863603F
:1019200004BF521822600460ECE713465A680AB1FB
:10193000A242FAD919685818A0420BD12068014474
:10194000581882421960DDD1106852685A6001440B
:101950001960D7E702D90C232B60D3E72068211840
:101960008A4204BF11685268626004BF091821608E
:101970005C60C7E738BD00BF8810002070B5CD1C83
:1019800025F0030508350C2D38BF0C25002D064623
:1019900001DBA94203D90C233360002070BD00F0A5
:1019A000A7FB214A1468214691B9204C23681BB932
:1019B0003046FEF7F1FB206029463046FEF7ECFB8F
:1019C000431C24D10C233360304600F092FBE4E743
:1019D0000B685B1B18D40B2B0FD90B60CD50CC18A8
:1019E000304600F086FB04F10B00231D20F00700B9
:1019F000C31AD3D05A42E250D0E78C424B6816BF8C
:101A0000636013600C46EBE70C464968CCE7C41CE6
:101A100024F00304A04205D0211A3046FEF7BCFB97
:101A20000130CFD02560DBE7881000208C1000202B
:101A30009368013B002B10B4936008DA9469A342C9
:101A400001DB0A2903D15DF8044BFFF7A3BC13683F
:101A5000581C1060197008465DF8044B7047F8B5C3
:101A600006460F461446D518AC4201D1002007E0C7
:101A70003A4614F8011B3046FFF7DAFF431CF3D156
:101A8000F8BD00002DE9F04F0C469DB017461D46ED
:101A9000064618B183690BB9FFF72CFE7C4B9C42BC
:101AA00058D17468A38918075ED52369002B5BD0D1
:101AB0000023099320238DF8293030238DF82A3014
:101AC00003954FF0010BB846454615F8013B0BB1A5
:101AD000252B54D1B8EB070A0BD053463A46214682
:101AE0003046FFF7BCFF013000F0C280099B534431
:101AF000099398F80030002B00F0BA8000234FF0D3
:101B0000FF32CDE90523049307938DF853301A93E0
:101B1000A846052218F8011B5E4800F099FA049BBC
:101B200078BBD90644BF20228DF853201A0744BF42
:101B30002B228DF853202A782A2A2AD0079AA846E1
:101B400000200A25414611F8013B303B092B69D999
:101B500060B324E0504B9C4201D1B468A2E74F4BE4
:101B60009C4208BFF4689DE721463046FFF764FCBD
:101B700000289DD04FF0FF301DB0BDE8F08FA84683
:101B8000A2E7444A801A0BFA00F018430490454635
:101B9000BEE7039A111D12680391002A01DB079228
:101BA00004E0524243F002030792049398F8003095
:101BB0002E2B0ED198F801302A2B38D1039B1A1DF9
:101BC0001B680392002BB8BF4FF0FF3308F10208E7
:101BD0000593334D98F800100322284600F038FA98
:101BE00040B14023401B03FA00F0049B034308F17B
:101BF0000108049398F800102A488DF8281006224E
:101C000008F1010700F024FA002837D0264B1BBB4F
:101C1000039B073323F0070308330393099B4B44CB
:101C2000099350E705FB0232012088468AE700232A
:101C300008F10108059319460A25404610F8012BC2
:101C4000303A092A03D9002BC3D00591C1E705FB1F
:101C5000012101238046F0E703AB00932246134B9A
:101C600004A93046AFF30080B0F1FF3F8146D5D1E3
:101C7000A3895B063FF57EAF09987DE703AB009330
:101C800022460A4B04A9304600F088F8ECE700BF72
:101C900074230008B4230008942300085423000888
:101CA000BA230008BE230008000000005F1A0008E5
:101CB0002DE9F04791461F468A680B69DDF82080C0
:101CC0009342B8BF1346C9F8003091F84320064646
:101CD0000C4612B10133C9F800302368990642BF9F
:101CE000D9F800300233C9F80030256815F0060530
:101CF00007D104F1190AE368D9F800209B1AAB4216
:101D000028DC94F843302268003318BF0123920680
:101D10002DD404F1430239463046C047013020D06B
:101D20002368E568D9F8002003F00603042B08BFF8
:101D3000AD1AA36822690CBF25EAE5750025934218
:101D4000C4BF9B1AED184FF000091A344D451AD143
:101D5000002008E00123524639463046C047013092
:101D600003D14FF0FF30BDE8F0870135C3E7E1183C
:101D70005A1C302081F84300224494F8451082F820
:101D800043100233C5E70123224639463046C04797
:101D90000130E6D009F10109D8E700002DE9F04350
:101DA00001F1430C0C46097E85B06E2917460646A4
:101DB00098460C9A00F0B38022D8632936D00AD80E
:101DC000002900F0B980582900F0838004F1420511
:101DD00084F8421032E0642901D06929F6D12068E4
:101DE0001368050603F104012AD51B681160002B56
:101DF00003DA2D225B4284F843206F480A2239E03F
:101E0000732900F09D8008D86F2920D07029DDD17A
:101E1000236843F02003236003E0752917D0782955
:101E2000D4D1782384F84530644855E01368191DEF
:101E30001B68116004F1420584F8423001238CE0F4
:101E40001B68116010F0400F18BF1BB2CFE713687A
:101E50002568181D1060280601D51B6802E0680679
:101E6000FBD51B8854486F2914BF0A220822002181
:101E700084F843106568A560002DC0F29580216844
:101E800021F004012160002B3DD1002D40F08E8017
:101E90006546082A0BD12368DB0708D523696268E9
:101EA0009A42DEBF302305F8013C05F1FF35ACEB6B
:101EB00005032361CDF800803B4603AA2146304646
:101EC000FFF7F6FE01304DD14FF0FF3005B0BDE811
:101ED000F083394884F84510136821681D1D1B687C
:101EE00015600A060BD5CA0744BF41F020012160E6
:101EF0001BB9226822F0200222601022B7E74D06AB
:101F000048BF9BB2EFE76546B3FBF2F102FB11332A
:101F1000C35C05F8013D0B460029F5D1B9E713680C
:101F200025686169181D106028061B6801D51960B5
:101F300002E06A06FBD51980002323616546B9E7F4
:101F40001368191D11601D6862680021284600F0A1
:101F50007FF808B1401B606063682361002384F848
:101F60004330A7E723692A4639463046C047013047
:101F7000AAD023689B0713D4E068039B9842B8BF9C
:101F80001846A3E701234A4639463046C047013088
:101F90009AD00135E368039A9B1AAB42F2DCEBE777
:101FA000002504F11909F5E7002BACD1037884F87A
:101FB000423004F142056CE7C5230008D62300082F
:101FC00010B50C46B1F90E10FEF704F90028ABBFAE
:101FD000636DA3891B1823F48053ACBF6365A38191
:101FE00010BD2DE9F0411F468B89DB0505460C46E7
:101FF000164605D502230022B1F90E10FEF7F7F8B8
:10200000A389B4F90E1023F48053A38132463B46D2
:102010002846BDE8F041FEF7E1B810B50C46B1F92D
:102020000E10FEF7E4F8431CA38915BF606523F486
:10203000805343F48053A38118BFA38110BDB1F92D
:102040000E10FEF7CFB800000000000000000000F6
:1020500001F0FF01102A2BDB10F0070F08D010F859
:10206000013B013A8B422DD010F0070F42B3F6D15D
:10207000F0B441EA012141EA014122F007047FF076
:1020800000070023F0E80256083C85EA010586EACD
:10209000010685FA47F5A3FA87F586FA47F6A5FA09
:1020A00087F68EB9EED1F0BC01F0FF0102F0070215
:1020B00032B110F8013B013A83EA010313B1F8D1C0
:1020C0000020704701387047002D06BF35460338A1
:1020D000073815F0010F07D1013015F4807F02BFDA
:1020E000013015F4C03F0130F0BC0138704700BF2B
:1020F00070477047425553204641554C5420484143
:102100004E444C4552004445425547204D4F4E20C9
:1021100048414E444C45520044554D4D592048418C
:102120004E444C45520048415244204641554C547F
:102130002048414E444C4552004D454D204D414EA6
:102140004147452048414E444C4552004E4D4920A0
:1021500048414E444C455200555341474520464165
:10216000554C542048414E444C45520000440040D8
:10217000000002000F00004802000048030700268C
:102180000000000000000000003801400040000096
:102190000A00004809000048070701250000000068
:1021A000000000006D61696E28293A205468697347
:1021B0002069732052494F54212028566572736953
:1021C0006F6E3A20323031392E3037290A00696477
:1021D0006C65006D61696E002A2A2A2052494F54AD
:1021E000206B65726E656C2070616E69633A0A25BA
:1021F000730A0A002A2A2A207265626F6F74696E58
:10220000672E2E2E0A0A0002020000000000004085
:10221000FFFFFFFF01000000001C0000546869730D
:1022200020626F6172642068617320554E49515F6E
:10223000494420307825346C582025346C582025AA
:10224000346C582E0A007468726561645F66756E3E
:10225000630048656C6C6F20576F726C6421006E70
:1022600075636C656F2D6C3433326B6300596F7519
:10227000206172652072756E6E696E672052494FDB
:1022800054206F6E2061286E2920257320626F61B3
:1022900072642E0A0073746D33326C3400546869B2
:1022A0007320626F61726420666561747572657314
:1022B0002061286E29202573204D43552E0A005495
:1022C00068697320626F6172642068617320256998
:1022D000204C4544732E0A005468697320626F6174
:1022E000726420686173204D4355207061636B6197
:1022F000676520636F646520307825346C582E0A3A
:10230000005468697320626F617264206861732091
:102310004D435520666C6173682073697A6520258A
:102320006C75206B422E0A00736C65707420756E9C
:1023300074696C20256C750A004C45443020746F1C
:1023400067676C650A003E3E3E2068657265000066
:102350001402002000000000000000000000000047
:10236000000000000000000000000000000000006D
:10237000000000000000000000000000000000005D
:10238000000000000000000000000000000000004D
:10239000000000000000000000000000000000003D
:1023A000000000000000000000000000000000002D
:1023B00000000000232D302B2000686C4C00656667
:1023C0006745464700303132333435363738394186
:1023D000424344454600303132333435363738399C
:0823E0006162636465660000A0
:1023E80094100020CE210008D3210008010101012A
:1023F8001402002000000000742300089423000841
:102408005423000800000000000000000000000045
:1024180000000000000000000000000000000000B4
:1024280000000000000000000000000000000000A4
:102438000000000000000000000000000000000094
:102448000000000000000000000000000000000084
:0824580000000000210000005B
:040000050800049D4E
:00000001FF
